:02000002B0004C
:1040000000400B003C830B00000006000C00050282
:084010000401810C0000000016
:04401800747C0B00A9
:10401C0009480A49884208B505D0094A824202D0AB
:10402C00121A03F037FD0748074A0021121A03F051
:10403C0059FD014808BD00BF70E10320A4820B00AC
:10404C00E0E10320E0E10320EDE7032070B5074E2B
:10405C00074C03F047F9A41BA4080025AC4200D17F
:10406C0070BD56F8043B98470135F7E778820B0092
:10407C009C820B0000F050B808B500F06DF8BDE85C
:10408C00084003F0E7B800F0B5BB00F0B3BB00F09C
:10409C00B9BB0078B0FA80F0400970470123037077
:1040AC00704770B50B6803604E6843689E420546C6
:1040BC0016D016B17368013373606C687CB1636899
:1040CC00013B63605BB9236820469B689847A368F3
:1040DC00013BA3601BB923682046DB6898476E60E0
:1040EC0070BD0EB403B503AB002153F8042B019340
:1040FC0003F01BF802B05DF804EB03B0704700004E
:10410C0010B5044603F0F6F922780249FFF7E9FFEF
:10411C0010BD00BF887C0B0008B503F0EBF94FF421
:10412C00165103F0DBF901F0F7F901F03FFA012029
:10413C0003F044F8054A0649104602F01BFA054AFA
:10414C000349BDE80840104602F014BAACE603205F
:10415C000D410B00C4E603202DE9F0418AB001F0BB
:10416C00DBF901F069FA044640B3534B1C8824B1C7
:10417C00013C1C800AB0BDE8F081504D42F2107237
:10418C001A802B7883B14E494E482346022201F007
:10419C0063F84B49234602224B4801F05DF82B781B
:1041AC0083F001032B70E5E748494648019302224E
:1041BC0001F052F8019B45490222EDE7444D00F015
:1041CC0033F92B68C01AB0F5FA6FD3D300F02CF981
:1041DC00286001F0A1F93F49142201F077FA064654
:1041EC000028C7D0DFF8EC803B4F04EBC40505A8D2
:1041FC00AD0000F001FE05F10800012205A94044C4
:10420C0002F0C2F800283CD0344905A800F04FFE5B
:10421C0010B301F081F90123014608EB050203A854
:10422C0002F0EAFC2E4803A9FFF73BFF03A801F0BC
:10423C00C4FA2B4801F0E8F870B12A4A2A492848F8
:10424C0002F06EF9294A1F49254802F069F900224B
:10425C001146FF2002F0C2FF254905A800F027FEF9
:10426C0078B101F059F90123014608EB050203A8C6
:10427C0002F0C2FC384603A9FFF713FF03A801F0B4
:10428C009CFA384601F0C0F8014698B1194A1A490F
:10429C00384602F045F9194A0B49384602F040F904
:1042AC000022FF2110460134E4B202F097FFB44221
:1042BC009BD35FE7FF22F6E772E103206AE203205B
:1042CC0070E10320B4E60320CCE6032068E203206F
:1042DC0064E203206CE20320BCE603203CE20320F2
:1042EC00A4E60320ECE10320ACE6032014E2032057
:1042FC0050E2032000E20320C4E6032028E203205E
:10430C00254B002270B5C3E90022A2F580329A60D9
:10431C00032000F0EBF9214C1E257F26204600F0EF
:10432C0060FD04F1080001F05EFD04F1140001F0E1
:10433C005AFD013D84F8206004F12404EED11848A4
:10434C0000F064FF174800F061FF174801F03AF8DD
:10435C001649174800F02AFE1649174800F026FEA9
:10436C001649174800F022FE164800F04FFF164879
:10437C0000F04CFF154801F025F81549154800F0E0
:10438C0015FE1549154800F011FEBDE870401449A2
:10439C00144800F00BBE00BFE0E103206CE20320E8
:1043AC00ACE60320B4E60320A4E603208D7C0B00CE
:1043BC003CE20320B27C0B00ECE10320D77C0B0029
:1043CC0014E20320C4E60320CCE60320BCE6032061
:1043DC00FC7C0B0050E20320217D0B0000E203204B
:1043EC00467D0B0028E2032008B5024B1B689B6836
:1043FC00019308BD6802030008B5024B1B68DB681B
:10440C00019308BD6802030008B5024B1B685B688A
:10441C00019308BD1802030008B5024B1B68DB684A
:10442C00019308BD1802030008B5024B1B685B69B9
:10443C00019308BD1802030008B5024B1B689B686A
:10444C00019308BD7802030008B5024B1B68DB6FB3
:10445C00019308BD7802030008B5034B1B68D3F821
:10446C008430019308BD00007802030008B5034BAB
:10447C001B68D3F89830019308BD00007802030044
:10448C0008B5034B1B68D3F8B430019308BD00008A
:10449C007802030008B5034B1B68D3F8BC300193BA
:1044AC0008BD00007802030008B5034B1B68D3F865
:1044BC00C430019308BD00007802030008B5034B1B
:1044CC001B68D3F8D830019308BD000078020300B4
:1044DC0008B5034B1B68D3F8DC30019308BD000012
:1044EC007802030008B5034B1B68D3F8E030019346
:1044FC0008BD00007802030008B5034B1B68D3F815
:10450C00E430019308BD00007802030008B5034BAA
:10451C001B68D3F8F030019308BD0000780203004B
:10452C0008B5034B1B68D3F8F430019308BD0000A9
:10453C007802030008B5034B1B68D3F800310193D4
:10454C0008BD00007802030008B5034B1B68D3F8C4
:10455C000431019308BD00007802030008B5024B3A
:10456C001B685B6C019308BD4802030008B5024B45
:10457C001B68DB6C019308BD4802030008B5024BB5
:10458C001B685B6D019308BD4802030008B5024B24
:10459C001B685B69019308BD6402030008B5024BFC
:1045AC001B68DB68019308BD3C02030008B5024B95
:1045BC001B681B69019308BD3C02030008B5024B44
:1045CC001B685B69019308BD3C02030008B5024BF4
:1045DC001B689B69019308BD3C02030008B5024BA4
:1045EC001B68DB69019308BD3C02030008B5024B54
:1045FC001B689B6A019308BD3C02030008B5024B83
:10460C001B681B6C019308BD3C02030008B5024BF0
:10461C001B681B68019308BD4C02030008B5024BD4
:10462C001B685B68019308BD4C02030008B5024B84
:10463C001B681B69019308BD4C02030008B5024BB3
:10464C001B685B69019308BD4C02030008B5024B63
:10465C001B689B69019308BD4C02030008B5024B13
:10466C001B68DB69019308BD4C02030008B5024BC3
:10467C001B681B6A019308BD4C02030008B5024B72
:10468C001B685B68019308BD6002030008B5024B10
:10469C001B689B68019308BD6002030008B5024BC0
:1046AC001B68DB68019308BD6002030008B5024B70
:1046BC001B689B69019308BD6002030008B5024B9F
:1046CC001B68DB69019308BD6002030008B5024B4F
:1046DC001B685B6B019308BD6002030008B5024BBD
:1046EC001B681B6D019308BD6002030008B5024BEB
:1046FC001B685B68019308BD2002030008B5034BDF
:10470C001B68D3F88830019308BD00002002030019
:10471C0008B5034B1B68D3F89430019308BD000017
:10472C002002030008B5024B1B685B68019308BDAF
:10473C004002030008B5024B1B689B68019308BD3F
:10474C004002030008B5024B1B68DB68019308BDEF
:10475C004002030008B5024B1B681B69019308BD9E
:10476C004002030008B5024B1B685B69019308BD4E
:10477C004002030008B5024B1B689B69019308BDFE
:10478C004002030008B5024B1B68DB69019308BDAE
:10479C004002030008B5024B1B681B6A019308BD5D
:1047AC004002030008B5024B1B681B6B019308BD4C
:1047BC004002030008B5024B1B685B6B019308BDFC
:1047CC004002030008B5024B1B681B6C019308BD2B
:1047DC004002030008B5024B1B685B6C019308BDDB
:1047EC004002030008B5024B1B68DB6B019308BD4C
:1047FC004402030008B5024B1B681B68019308BDFB
:10480C001C02030008B5024B1B685B68019308BDD2
:10481C001C02030008B5024B1B689B68019308BD82
:10482C001C02030008B5024B1B685B6A019308BDB0
:10483C001C02030008B5024B1B68DB6A019308BD20
:10484C001C02030008B5024B1B681B6C019308BDCE
:10485C001C02030008B5024B1B685B6C019308BD7E
:10486C001C020300002240681146FFF793BF002290
:10487C0040681146FFF79EBF40680022FFF792BFC9
:10488C004068002281F00101FFF77CBF00234068E3
:10489C001A461946FFF76EBF002340681A461946A0
:1048AC00FFF760BF002240681146FFF753BF00229C
:1048BC0040681146FFF73EBF406800220221FFF717
:1048CC0041BF002340681A46FFF72CBF024B03225E
:1048DC005A60024A1A607047D4E60320747D0B00BC
:1048EC00054B02221A60054B054A9A600020C3E969
:1048FC000000FFF7FBBE00BFE8E60320DCE6032068
:10490C000000FFFF10B504460068FFF77BFF204650
:10491C0010BD10B50446006808B1FFF773FF002303
:10492C00C4E90133236010BD38B504460D46006858
:10493C000131FFF76FFF10B1C4E90005012038BD4C
:10494C0010B50368044623B143688B4201D30120A0
:10495C0010BD2046FFF7E8FF0028F9D0A368002B14
:10496C00F5D122681370F2E737B50D461146019266
:10497C000446FFF7E5FF019A28B92046FFF7C9FF67
:10498C00204603B030BDA2602946206803F082F8AF
:10499C002268A3680021D154F2E7002313B5C0E9C3
:1049AC00003304468360037341B10846019103F060
:1049BC00E1F8019902462046FFF7D6FF204602B0E7
:1049CC0010BD38B5054600680C4668B16A688B683E
:1049DC009A4207D3096803F0C5F8A368AB600023BB
:1049EC00A36038BDFFF70EFF23682B6063686B6014
:1049FC00A368AB600023C4E90033F1E710B50023D2
:104A0C00C0E90033044683600373FFF7DAFF2046E6
:104A1C0010BD884210B5044605D00B682BB18A68CE
:104A2C001946FFF7A1FF204610BDFFF772FFFAE70A
:104A3C0010B500230446C0E9003383600373FFF70D
:104A4C00E8FF204610BD13B5044659B10846019144
:104A5C0003F090F8019902462046FFF785FF2046A7
:104A6C0002B010BDFFF755FFF9E770B505460E46CD
:104A7C0009B9002070BD6AB1846814442146FFF75F
:104A8C005FFF0028F5D02868AB683146184403F066
:104A9C0069F8AC600120EDE707B500238DF8041030
:104AAC00012201A98DF80530FFF7DFFF03B05DF897
:104ABC0004FB02680B46096862B141B9806860B1B9
:104ACC0010787047986840B1097848427047104692
:104ADC0003F03EB80029F5D10846704708B5826846
:104AEC008B689A4205D1FFF7E4FFB0FA80F04009D9
:104AFC0008BD0020FCE77047704770477047000006
:104B0C00064B994210B500F10C0405D0084602F092
:104B1C0099FE002808BF0024204610BDC07F0B0062
:104B2C00064B994210B500F10C0405D0084602F072
:104B3C0089FE002808BF0024204610BDC07F0B0052
:104B4C00064B994210B500F10C0405D0084602F052
:104B5C0079FE002808BF0024204610BDC07F0B0042
:104B6C0010B568210446FFF792FA204610BD10B527
:104B7C0028210446FFF78BFA204610BD10B53021D2
:104B8C000446FFF784FA204610BD6821FFF77FBA70
:104B9C002821FFF77CBA3021FFF779BAF0B5002550
:104BAC00EC1C8C420DD86E1C445D875D974205D180
:104BBC002644B14205D31D60601CF0BD0134254470
:104BCC00EEE70020F9E70000024A00210A20FFF777
:104BDC007DBD00BF25440B0030B40D4611461A466E
:104BEC00036809682868D3E90043A44630BC6047D1
:104BFC00012A38B5044602D10B68236003E0022A6F
:104C0C0003D0032A0DD0002038BD08200D68FFF713
:104C1C003AFA03460028F0D095E8030083E8030035
:104C2C00EBE700680028EED00821FFF730FAEAE73E
:104C3C0010B5836804462BB1032201469847002324
:104C4C00C4E9023310BD10B5836804462BB10322AE
:104C5C00014698470023C4E9023310BD10B5002368
:104C6C008AB02022CDE902230446084A0092084962
:104C7C0002AA0120FFF732FD2068064900880023B4
:104C8C0022460AB0BDE81040FFF704BCB37D0B0010
:104C9C00A87D0B0029670B0010B5013802EB410110
:104CAC0010F8013F1B0903F13004392C88BF03F1C4
:104CBC00370402F8024B037803F00F0303F13004BE
:104CCC00392C88BF03F13704914202F8014CE7D12B
:104CDC0010BD10B58368044613B1032201469847F2
:104CEC00204610BD10B504465830FFF7F2FF04F112
:104CFC004800BDE81040FFF705BE10B54368013B06
:104D0C000446436063B903689B689847A368013BFA
:104D1C00A3602BB923682046DB68BDE81040184718
:104D2C0010BD38B503688B4205460C4608D011B14E
:104D3C004B6801334B60286808B1FFF7DEFF2C602D
:104D4C0038BDA0F13003DAB2092A01D818467047F1
:104D5C00A0F16103052B01D857387047A0F141032E
:104D6C00052B94BF37384FF0FF30704710B5002338
:104D7C000370044B04461868FFF7F8FB01232370FB
:104D8C00204610BDF0E6032010B5037804461BB195
:104D9C00024B1868FFF7F2FB204610BDF0E603202B
:104DAC0082B00346086849686A4603C26A4603CA69
:104DBC0018601846596002B0704708B582798B7933
:104DCC009A4206D1062202F055FEB0FA80F0400954
:104DDC0008BD0020FCE74FF0FF3303608380002008
:104DEC00704708B50246002101604160FFF7F3FFF0
:104DFC009171104608BD000010B501230361054BED
:104E0C00024603F1100153F8044B42F8044B8B4259
:104E1C00F9D110BDCE7F0B000B7C13F0FD0330B528
:104E2C000DD103610C4B024603F1100453F8045BE3
:104E3C0042F8045BA342F9D10B88838130BD012376
:104E4C00036101F11002034651F8044B43F8044B83
:104E5C009142F9D1F2E700BFCE7F0B0010B50B46A3
:104E6C000446B1B1012A01F110020AD1014653F8EE
:104E7C00040B41F8040B9342F9D101232361204622
:104E8C0010BD411E12F8010D01F8010F9A42F9D123
:104E9C00F3E7102202F026FEF1E738B504460D4682
:104EAC00FFF7AAFF00232361A581204638BD08B572
:104EBC0002690B699A4206D1102202F0DBFDB0FAAE
:104ECC0080F0400908BD0020FCE7000001232DE91B
:104EDC00F3410361344B0C460646024603F11001C4
:104EEC0053F8040B42F8040B8B42F9D144B3242140
:104EFC00204602F047FE04284FF0000523D1ADF800
:104F0C00045001AFA51C063415F8020CFFF719FF6D
:104F1C00B0F1000812DB15F8010CFFF712FF0028A6
:104F2C000CDB023540EA0810A54207F8010BEBD167
:104F3C009DF8053033739DF804307373002333618F
:104F4C0002B0BDE8F0814FF010082421204602F099
:104F5C0019FEA84207D842460021304602B0BDE8EF
:104F6C00F04102F0BFBDB8F1000FE9D0605DFFF772
:104F7C00E8FE030615D4000108F1FF38C7B206F8A5
:104F8C0008702421204602F0FDFD0135A84208D905
:104F9C00605DFFF7D6FE40B20028A4BF384306F888
:104FAC0008000135D1E700BFCE7F0B0013B50446D6
:104FBC000191FFF721FF20460199FFF787FF20465B
:104FCC0002B010BD10B500F10F0301391C7801F8C7
:104FDC00014F834203F1FF33F8D110BD2DE9F041AD
:104FEC001F468EB00D4600295BD0DAB1D0F8108088
:104FFC00541EB8F1000F19D18389CDF814805BBA17
:10500C0005AA022101A8ADF80430FFF745FE042CD7
:10501C0028BF0424224605A9284602F03BFD05F8CA
:10502C000480621C10460EB0BDE8F08101A9FFF7A8
:10503C00C9FF05AA7FB1102101A8FFF72DFE242C72
:10504C0028BF2424224605A9284602F023FD00236C
:10505C002B55621CE6E704210DEB0100FFF71CFE4B
:10506C002D260DF11D02022102A88DF81C60FFF700
:10507C0013FE0DF1220202210DF10A008DF82160C0
:10508C00FFF70AFE0DF12702022103A88DF8266016
:10509C00FFF702FE8DF82B600BAA06210DF10E0016
:1050AC00CBE70A46BEE710B58AB00446002325229A
:1050BC0008466946FFF792FF69462046FFF76DFCEC
:1050CC0020460AB010BDF7B5054616461F460A46DF
:1050DC0001ABD0E90001FFF761FD30F002040CD008
:1050EC00841EBC4228BF3C463EB101992B6802315C
:1050FC0022461944304602F0CDFC204603B0F0BDE8
:10510C0037B513460C4601920A4608210546FFF7AF
:10511C00DAFF40B9019B22460921284603B0BDE8BD
:10512C003040FFF7D0BF03B030BD0000F0B50C46E7
:10513C0089B00C490546FFF730FC1F226946204612
:10514C00FFF7DEFF064650B16C46002714F8011B32
:10515C002846FFF7A1FC10B10137BE42F6D1284614
:10516C0009B0F0BD8C7C0B0007B5022301AA1921F4
:10517C00FFF7A9FF08B1BDF8040003B05DF804FB0C
:10518C0038B54FF6FF730025044643800E2229469E
:10519C0005700571063002F0A5FC04F11400FFF750
:1051AC002BFE04F12800FFF727FE044904F13C0014
:1051BC00FFF7F3FB6565204638BD00BF8C7C0B0008
:1051CC0038B50D680446014605F12800FFF76FFE5F
:1051DC0040B1AB89A28A9A4205D8E08A984234BF82
:1051EC000020012038BD0020FCE710B5D0E90632C4
:1051FC0003EBC2029342184606D0046824888C4202
:10520C0003F10803F6D110BD0020FCE7002370B5B4
:10521C00036005466820FEF736FF041E04F10C06F9
:10522C0007D00123C4E90133044B23603046FFF758
:10523C00A7FFC5E90064284670BD00BF747F0B0052
:10524C0070B50C681434064605460FCC0FC52368A0
:10525C002B60304670BD0000F0B5064685B01F4689
:10526C000D46002950D0002A4ED004682378F42A29
:10527C0028BFF42243B32379980709D5A089039258
:10528C000023FFF7FDF80028039A03DA05B0F0BD00
:10529C006FF0770034682379D90609D5012F07D030
:1052AC00A0890023294605B0BDE8F040FFF742B9BC
:1052BC009B06EBD5022FE9D0A0890023294605B027
:1052CC00BDE8F040FFF740B960884FF6FF718842A7
:1052DC001CD021794E0701D5012F04D10B0709D41D
:1052EC006FF07700D2E7A189009313462A46FFF7A7
:1052FC00EFF8CBE7022FF3D00023A18900931346DC
:10530C002A46FFF7DBF8C1E70248BFE76FF0D10090
:10531C00BCE700BFF2FEFFFF10B503681A7886B039
:10532C0052BB5C884FF6FF70844225D0188A30B38C
:10533C00CDE903220592134A0092134ACDE90123C9
:10534C005A88ADF80C201A8AADF80E209A89ADF85F
:10535C00102059B11A79920644BF022205921B798A
:10536C00DB0642BF059B43F0010305930021684611
:10537C00FFF7D6F806B010BD6FF0D100FAE76FF06A
:10538C007700F7E7030018005D550B00F8B5002611
:10539C00066005462820FEF776FE041E04F10C0775
:1053AC000AD00123C4E90133054B23603846FFF7CB
:1053BC0023FD266284F82460C5E900742846F8BDF4
:1053CC00907F0B0070B50025056006463020FEF777
:1053DC005AFE044688B10123C0E90133094B03602E
:1053EC004FF6FF7383810E30FFF7FBFCC4E90655C3
:1053FC00C4E90855C4E90A55A57574600C343460C9
:10540C00304670BDAC7F0B0013B5044601A8FFF706
:10541C00ADFC23681C884FF6FF73E41A01A818BF73
:10542C000124FFF7B1FC204602B010BD37B505468C
:10543C000C4601A8FFF79AFC2A682368C2F80230D0
:10544C006368C2F8063001A8FFF79EFC03B030BDBC
:10545C0037B50D46044601A8FFF788FC2A68D2F838
:10546C0002302360D2F80630636001A8FFF78CFC91
:10547C00204603B030BD30B5054687B00C4601A8B8
:10548C00FFF774FC2A68236812881B889A420DD196
:10549C00294602A8FFF7DCFF214604A8FFF7D8FF36
:1054AC0004A902A8FFF789FC044600B9002401A84E
:1054BC00FFF76AFC204607B030BD000010B504466B
:1054CC005420FEF7E0FD014660B10023C0E9003333
:1054DC00C0E90233C0E90433C0E906330362C36296
:1054EC00C363C364216019B9094A0A20FFF7EEF8B7
:1054FC000020FEF7A1FF20B1054A00210A20FFF78A
:10550C00E5F8216803480022FFF700F8204610BD9B
:10551C0025440B00255F0B0010B50A4C2378BFF314
:10552C005B8FDB070CD42046FEF7B3FD40B1064879
:10553C00FFF7C4FF2046FEF7B1FD044802F094FAD1
:10554C00014810BDECE60320F4E6032031580B00B3
:10555C0030B50368093B012B8DB004460D4611D8BC
:10556C00FFF7DAFFA1880068FFF73FFE034658B942
:10557C002022CDE904200B4A00920B4904AA3220C8
:10558C00FFF7ACF80DB030BD6A6D002AFAD0D4E943
:10559C00032105F14C00CDE90312AC6D04AA03A95B
:1055AC00A047EFE7CF7D0B00A87D0B0008B50020CE
:1055BC00FEF742FF00EAE07008BD000070B504463B
:1055CC0018300E461546FFF733FB04F12800FFF7A1
:1055DC003AFBC4E90365002221460348FEF734FF79
:1055EC000028A8BF606970BD656E0B0010B504463D
:1055FC004069FFF707F9A068FFF704F9204610BDD2
:10560C00002247F67F71C0E90022C0E90222C0E9FE
:10561C000422C0E90E22C0E91022C0E91222C0E91E
:10562C001422C0E91622C0E91822C0E91B2202622A
:10563C000263A0F8681070470368D8690028D4BFCB
:10564C0000200120704770B5D0E90053044605EBEB
:10565C000316AE4204D02846FFF754F91035F8E78C
:10566C002068FFF7CFF8204670BD10B504460068DF
:10567C00FFF7C8F8204610BD70B50446C06DFFF7A3
:10568C00C1F8206DFFF7BEF804F1380504F14400B1
:10569C00FFF7EBFF2846FFF7D6FF04F12800FFF7D2
:1056AC0018FB04F11800FFF714FBD4E9005324266F
:1056BC0006FB0356AE4204D02846FFF797FF24356D
:1056CC00F8E72068FFF79EF8204670BD30B5154608
:1056DC009FB00C4679B172B101A8FFF791FF21463A
:1056EC002A4601A8FFF76AFF044601A8FFF7C4FF8A
:1056FC0020461FB030BD014CFAE700BFF2FEFFFFA1
:10570C0038B5141E4368054602DB62189A4200DD68
:10571C005C1A2A68501801191A44521A02F0C8F976
:10572C006A68121B6A6038BD38B500230446836072
:10573C0008200D46FEF7A7FC18B12B6803606B68B8
:10574C004360034BE360034B2060A360204638BDED
:10575C00E54B0B00FD4B0B000B68036013B15A6853
:10576C0001325A60704710B551F8043B044640F8BA
:10577C00043BFFF7F1FF23680BB9FFF725FA20462E
:10578C0010BD10B551F8043B044640F8043BFFF73C
:10579C00E3FF204610BD10B551F8043B044640F819
:1057AC00043BFFF7D9FF204610BD10B50446006836
:1057BC0008B1FFF7A2FA204610BD10B5044604301C
:1057CC00FFF7F3FF204610BD70B5D0E90053044637
:1057DC0005EBC306AE4204D0281DFFF7E6FF0835E3
:1057EC00F8E72068FFF70EF8204670BD70B5D0E9D9
:1057FC000053044605EBC306AE4204D0281DFFF748
:10580C00D4FF0835F8E72068FEF7FCFF204670BD92
:10581C0010B504462430FFF7E9FF04F11800FFF738
:10582C00D3FF10BD70B5154B1C6834B304F14400A4
:10583C00FFF74FFA04F13400FFF74BFA04F12400A0
:10584C00FFF747FAD4E9065305EBC306AE4204D082
:10585C00281DFFF7AAFF0835F8E7A069FEF7D2FF6D
:10586C0004F10C00FFF7C2FF2046FFF7ADFF204606
:10587C005421BDE87040FEF70ABC70BDF4E603206D
:10588C00826810B50AB901F0D9FFBDE81040C368B1
:10589C0018472DE9F0470023C0E900338360D1F8A5
:1058AC000480984505460F464ADD4FEA0810FEF77E
:1058BC00A1FF0646002843D0D5E90041A04204EBE5
:1058CC00011A16D9504515D2AAF1100AA4F11009E3
:1058DC00AAEB04040444D1451DD01CB1514620460A
:1058EC00FFF78CF85046FFF70DF8AAF1100A103CA0
:1058FC00F1E710D0B146A2450DD0B9F1000F03D09D
:10590C0021464846FFF77AF82046FEF7FBFF103495
:10591C0009F11009EFE72868FEF774FFC5F8088055
:10592C002E60D7E9004304EB0318A04506D02146AE
:10593C003046FFF77DF810341036F6E77B686B6065
:10594C002846BDE8F08730B58DB00C4600F1380123
:10595C0001A8FFF79EFF029B002B2FDD04F1140121
:10596C0004A8FFF7E3FB04F1080108A8FFF7DEFB2E
:10597C000A9A069B13431FD0DDE9014504EB05157C
:10598C00AC4219D004A92046FFF7A8F860B1012455
:10599C0008A8FEF7B7FF04A8FEF7B4FF01A8FFF7AD
:1059AC0052FE20460DB030BD204608A9FFF796F8F0
:1059BC0010340028E4D0EAE70024E9E70124EDE7FD
:1059CC00F8B50023C0E9003383604F689F42054659
:1059DC000E463EDDF800FEF70DFF0446C8B3D5E9D0
:1059EC000003844200EBC30310D99C420FD2083B46
:1059FC001A1AA0F1080C22449C4518D01AB1196847
:105A0C00116059685160083B083AF5E70FD0014620
:105A1C0022468B420BD03AB1D1F800C0C2F800C07C
:105A2C00D1F804C0C2F804C008310832F1E7FEF71F
:105A3C00E9FE2C60AF60D6E9003103EBC10098425F
:105A4C0006D01A6822605A68626008330834F6E798
:105A5C0069602846F8BD70B504460020C4E9000012
:105A6C00A0604E6886420D4612DD7100FEF7D2FE34
:105A7C0070B12060A660D5E9003203EB42029A4275
:105A8C0004D033F8021B20F8021BF8E76B68636044
:105A9C00204670BD10B50379044623B90368186815
:105AAC0008B1FEF7AFFE204610BD10B503790446D1
:105ABC0023B90368186808B1FEF7A4FE204610BD90
:105ACC002DE9F043D0F86C808FB00F46B8F1000F81
:105ADC0072D0056F002D6FD001F114091F23002225
:105AEC00FF214846FFF7EFFA0837FF230446002250
:105AFC0019463846FFF7E7FAAC42064606D0AE42E6
:105B0C0030D0002420460FB0BDE8F0832046FEF7CD
:105B1C0071FE03AB04930023044603908DF81430FC
:105B2C0070B92023CDE90630244B00932449034659
:105B3C0006AA3220FEF7D2FD04A8FFF7ABFFE1E77F
:105B4C000246FF212B464846FFF7BDFA03982A462A
:105B5C00414601F08FFF18B104A8FFF79BFFCEE779
:105B6C000124E9E72846FEF745FE002403AB064670
:105B7C00039004938DF8144078B92023CDE90630B6
:105B8C000E4B00930E49034606AA3220FEF7A6FDE3
:105B9C00344604A8FFF789FFB4E70246FF212B46E1
:105BAC003846FFF790FA03982A46414601F062FF07
:105BBC000028EED10124ECE70124A3E7E77D0B00DC
:105BCC00A87D0B0038B50D1E0446006803DDFEF7FA
:105BDC0021FE18B938BDFEF715FE00202060A56027
:105BEC000120F7E708B583688B4202DAFFF7EAFF7A
:105BFC0008BD0120FCE738B50023C0E90033836001
:105C0C000D4649689942044610DDFFF7DBFF68B189
:105C1C00D5E9003122681944994205D00AB11878A7
:105C2C00107001330132F7E76B686360204638BDB2
:105C3C0038B50B6803604B68436004460D4608306A
:105C4C000831FFF7D8FF05F1140104F11400FFF738
:105C5C00D2FF95F8203084F82030204638BD1FB58F
:105C6C00044601A8FFF7C7FF019B029A2068236036
:105C7C0063686260039A0293A368A2600190039325
:105C8C00FEF7C0FD04B010BD2DE9F0410F46416890
:105C9C001D461944836899420446904612DC2668D6
:105CAC0062683E44D21B3146701901F001FF2A464E
:105CBC004146304601F0EEFE63682B4463600120E0
:105CCC00BDE8F081FFF77EFF0028E8D1F8E7134626
:105CDC000A46002110B50446416002B10BB9002000
:105CEC0010BDFF2B28BFFF23FFF7CEFF0028F7D0F6
:105CFC006068F5E7F8B50D46D0E901139942044602
:105D0C0016460BDA276862687919521B481C01F099
:105D1C00CFFE7E55636801336360F8BD0131FFF738
:105D2C0051FF0028EED1F8E70A464168FFF7E2BFC1
:105D3C002DE9F74304461D460F4601AB90460A4633
:105D4C00D0E900019DF82890FEF728FFAE1C63688F
:105D5C000246B9F1000F26D128B333441B1AFF2B8E
:105D6C0009D801992046FFF7CBFC616820463144E5
:105D7C00FFF738FF18B9606803B0BDE8F0836A1C00
:105D8C000199D2B22046FFF7B5FF01993A4601318D
:105D9C002046FFF7AFFF01992B46424602312046C1
:105DAC00FFF772FFE7E7F118FF29E4D82046FFF769
:105DBC0019FF0028DFD0691CC9B22046FFF7B4FFD9
:105DCC0039462046FFF7B0FF61682B464246E6E7AE
:105DDC0030B49DF808501AB1029530BCFFF7A8BF3B
:105DEC00406830BC70471FB50023C0E900338360A6
:105DFC000622009301238DF80F2019460DF10F0296
:105E0C000446FFF7E5FF204604B010BD8842F8B504
:105E1C0004460D46164614D9904213D2A2F1080638
:105E2C00751AA1F108072C44B74218D01CB13146A1
:105E3C002046FFF7B0FC301DFFF7B7FC083E083CCE
:105E4C00F2E70CD0B5420AD01CB129462046FFF728
:105E5C00A2FC281DFFF7A9FC08350834F2E7F8BDB1
:105E6C00F7B5044646686846FFF795FCD4E901731C
:105E7C009F4212DB0137002F29DDF800FEF7BAFC38
:105E8C000546F0B1D4E9001201EBC202FFF7BEFFE8
:105E9C002068FEF7B7FC2560A7602368626803EBF7
:105EAC00C60603EBC202314606F10800FFF7AEFF4F
:105EBC001EB169463046FFF76EFC636801336360C0
:105ECC00012501A8FFF771FC284603B0F0BD0025A1
:105EDC00DEE7F8B5D0E9004305460F4604EBC306F0
:105EEC00A64205D039462046FFF7C5FA08B114B9C9
:105EFC00F8BD0834F4E7201DFFF757FCD5E9003254
:105F0C0004F1080103EBC2022046FFF77FFF6B6828
:105F1C00013B6B60ECE700002DE9F04105468EB0CB
:105F2C0003A80C46FEF722FF2E68042E75D007D866
:105F3C00032E32D003A8FEF727FF0EB0BDE8F08188
:105F4C00A6F10C03042BF5D8A9892046FFF74DF9CF
:105F5C000028EFD0E36C002BECD000230D2EADF815
:105F6C00163002D0102E40F0A080002369681A462B
:105F7C0006258DF8153004918DF814200690DDE976
:105F8C00040109AB8DF81C60089583E80300236DB0
:105F9C0006A904F144009847CCE704A8FFF712FACD
:105FAC00049BAA891A806968049808310230FEF7AC
:105FBC00F7FE04A906A8FFF7EEFB06A904F11800EA
:105FCC00FFF74EFF054607A8FFF7EFFB20230693CC
:105FDC008DB93D4B3D49009332202B4606AA0795BF
:105FEC00FEF77CFB049B29461888FEF73FFA05A8B0
:105FFC00FFF7DBFB9EE7364A0092002333490793F9
:10600C0006AA0120FEF76AFBE36A002BEFD004A975
:10601C0004F12400FFF734FCE9E7A9892046FFF7D7
:10602C00E4F80646002885D00568D5E906324FF617
:10603C00FF71298003EBC2029A4203D053F8080B7C
:10604C004180F9E7D5E9037307EBC308B84504D0E1
:10605C00381DFFF7AAFB0837F8E700232B61D5E9B9
:10606C00067307EBC308B84504D0381DFFF79DFB3A
:10607C000837F8E70023EB61AB72E36B23B13146D1
:10608C0004F13400FFF7FCFB00232022CDE90623AA
:10609C00104A00920D4906AA0120FEF71FFB31465B
:1060AC0004F11800FFF715FF44E70F2E01BF2B7A00
:1060BC00696803F0010208250FBFC3F340031A46B9
:1060CC0019461D4655E700BF027E0B00A87D0B004C
:1060DC00287E0B00457E0B0038B50D1E044600686B
:1060EC0005DD14216943FEF795FB18B938BDFEF7A1
:1060FC0089FB00202060A5600120F7E72DE9F8431B
:10610C000024C0E90044846088464968A1420746DF
:10611C001ADDFFF7E1FFB8B1D8E900934FF0140C8A
:10612C00D7F800E00CFB039C09EB0405AC4508D048
:10613C001EEB04061FBF0FCD0FC62B683360143443
:10614C00F2E7D8F804307B603846BDE8F8832DE9D7
:10615C00F843D1E9008745688368E91999420446F8
:10616C0017DC1423266862685D4303FB07F95A4366
:10617C002E44521B314606EB090001F099FC4A46AD
:10618C004146304601F086FC63683B446360BDE8E1
:10619C00F883FFF7A1FF0028E3D1F8E782B070B5D0
:1061AC000C4604A981E80C00D0E90113994205467C
:1061BC0017DA142303FB04F16A682C685A430C4465
:1061CC00521AE018214604AE01F072FC0FCE0FC437
:1061DC00336823606B6801336B60BDE8704002B0BC
:1061EC0070470131FFF778FF0028E2D1F5E72DE980
:1061FC00F04F002493B0931EC0E90044DBB2054677
:10620C000F4690468460059379688C4272DA386840
:10621C0007AB4246091B2044FEF7C0FC064600288B
:10622C0068D0059B012B2FD8A0F1020B4FEA5B0B1A
:10623C004FF000090DF13C0A079BCB45234455D088
:10624C003A6803EB4903134408A8D9789B7843EACE
:10625C000121FEF722FE0DF1200EBEE80F000DF11C
:10626C00340CACE80F00DEF80030CCF800309AE8C3
:10627C0007008DE807000DAB0CCB69682846FFF7CB
:10628C008DFF09F10109D7E7A8F10603012B2DD8E1
:10629C00A0F1020B4FEA1B1B4FF000090DF13C0A59
:1062AC00CB45079B22D002333968234403EB0913F7
:1062BC000122194408A8FEF7D1FD0DF1200EBEE80D
:1062CC000F000DF1340CACE80F00DEF80030CCF808
:1062DC0000309AE807008DE80700DDE90D236968B6
:1062EC002846FFF75BFF09F10109D9E7079B1C441E
:1062FC00344489E7284613B0BDE8F08F30B500234D
:10630C0085B0C0E9003383600446022201A80D4623
:10631C00FFF76DFF01A92046FFF719FF01A8FFF752
:10632C00A4F90222294601A8FFF761FF01A9204622
:10633C00FFF70DFF01A8FFF798F90322294601A8E2
:10634C00FFF755FF01A92046FFF701FF01A8FFF752
:10635C008CF90622294601A8FFF749FF01A920461E
:10636C00FFF7F5FE01A8FFF780F90722294601A8DF
:10637C00FFF73DFF01A92046FFF7E9FE01A8FFF753
:10638C0074F9204605B030BD2DE9F04385B0884640
:10639C00014601A89146FFF7B1FF019E029B4FF009
:1063AC00140E0EFB036C0027B4450DD0B94506F155
:1063BC00140609D0A6F114050FCD0EFB07840FC4EB
:1063CC002B6823600137EFE701A8FFF74EF9384639
:1063DC0005B0BDE8F0832DE9F04F8BB00C4600F111
:1063EC00440101A8FFF78AFE029B002B4ADD04F151
:1063FC00140104A8FFF782FF04F1080107A8FFF7B6
:10640C007DFF059D089E002D01DC002E38DD019AD4
:10641C00029FDDF81080DDF81C90142303FB072786
:10642C0003FB058503FB06969246BA4528D0C34666
:10643C00AB4515D059465046FEF739FD0BF1140B00
:10644C0004460028F4D007A8FFF70FF904A8FFF7BB
:10645C000CF901A8FFF709F920460BB0BDE8F08F45
:10646C00CB46B34509D059465046FEF720FD0BF1FB
:10647C00140B04460028F4D0E5E70AF1140AD4E71B
:10648C000024E0E70124E4E713B50B460246D0E90B
:10649C0000016C4684E8030093E8030082E80300E3
:1064AC0094E8030083E8030002B010BD38B505463C
:1064BC000C46FFF7E9FFAB68A268AA60A360EB6823
:1064CC00E268EA60E36038BD30B585B00023029322
:1064DC008B6805460C4633B1022268469847E36840
:1064EC000393A368029329466846FFF7DFFF6846CB
:1064FC00FEF7EFFB05B030BD38B50D4601684B6DAE
:10650C00044623B128684C314C30FFF7DDFF2046A0
:10651C002B6840F8043B6968FEF703FC204638BD45
:10652C002DE9F043044687B068460E461746FEF741
:10653C001DFC2368D3E9064304EBC3084445A1467C
:10654C0016D0214601A8FEF77BFE394601A8FEF7BE
:10655C00AEFC083405460028F0D049463046FFF71B
:10656C00CBFF6846FEF710FC284607B0BDE8F08369
:10657C000025F6E710B504688AB04C34B9B1CDE902
:10658C00001202A86946FFF7CFF8002306A902A85B
:10659C000893FFF78BFF214606A8FFF787FF06A895
:1065AC00FEF797FB02A8FEF794FB0AB010BD04910E
:1065BC00EBE78842F8B504460D46164614D99042CE
:1065CC0013D2A2F10806751AA1F108072C44B742A0
:1065DC0018D01CB131462046FFF7D3F8301DFFF719
:1065EC00E4F8083E083CF2E70CD0B5420AD01CB1E6
:1065FC0029462046FFF7C5F8281DFFF7D6F80835C1
:10660C000834F2E7F8BD70B50E1E054611DDF0003A
:10661C00FEF7F0F8044658B1D5E9001201EBC202BE
:10662C00FFF7C7FF2868FEF7EDF82C60AE6001207D
:10663C0070BD0024F6E72DE9F0410023C0E90033DA
:10664C0083600D4649689942044613DDFFF7DBFF72
:10665C0080B1D5E90063276806EBC308B04507D0C5
:10666C001FB131463846FFF78CF808360837F5E786
:10667C006B6863602046BDE8F08137B50D46044673
:10668C0001A8FEF773FB296820460C31FFF7D3FFF6
:10669C0001A8FEF779FB204603B030BD38B50B6876
:1066AC009B7A05460C4633B90846FEF7D7FA10B963
:1066BC00236801229A7228462146FFF7DEFF2846FE
:1066CC0038BD73B5044645686846FFF75AF8D4E9F7
:1066DC000113994210DA2368626803EBC50503EBDA
:1066EC00C202294605F10800FFF763FF8DB9636804
:1066FC0001336360012606E001312046FFF783FF7A
:10670C0006460028E7D101A8FFF74FF8304602B043
:10671C0070BD69462846FFF734F8E8E72DE9F04FDD
:10672C00DFF8B890DFF8B8A093B00546884600278C
:10673C002B68BB424ED903A8FEF728FE1C266A68BC
:10674C00039C7E4332440DF1140C131DE3461432AA
:10675C0018685968E646AEE8030008339342F446DD
:10676C00F6D11868CEF8000059460AA8FEF754FB7B
:10677C000DF1280CBCE80F000FC4DCF800302360CE
:10678C006B68039A334403A91B8B93826B68334465
:10679C005B8BD382D8F8000000F10C040AA8FEF73A
:1067AC00F0FF20460AA9FFF78CFF04460BA8FEF762
:1067BC00FCFF54B92023CDE90A34CDF800902346D0
:1067CC000AAA51463220FDF789FF04A8FEF7EDFF17
:1067DC000137ADE713B0BDE8F08F00BF647E0B004E
:1067EC00A87D0B008842F8B504460D46164614D910
:1067FC00904213D2A2F10806751AA1F108072C4495
:10680C00B74218D01CB131462046FEF7ACFF301D04
:10681C00FEF7CBFF083E083CF2E70CD0B5420AD09D
:10682C001CB129462046FEF79EFF281DFEF7BDFF32
:10683C0008350834F2E7F8BD70B50E1E054611DDBB
:10684C00F000FDF7D7FF044658B1D5E9001201EB73
:10685C00C202FFF7C7FF2868FDF7D4FF2C60AE60BB
:10686C00012070BD0024F6E72DE9F0410023C0E9BA
:10687C00003383600D4649689942044613DDFFF7E7
:10688C00DBFF80B1D5E90063276806EBC308B04590
:10689C0007D01FB131463846FEF765FF083608377A
:1068AC00F5E76B6863602046BDE8F08137B50D46AF
:1068BC00044601A8FEF75AFA296820461831FFF75A
:1068CC00D3FF01A8FEF760FA204603B030BD73B5C4
:1068DC00044645686846FEF746FFD4E90113994221
:1068EC0010DA2368626803EBC50503EBC202294684
:1068FC0005F10800FFF776FF8DB96368013363601B
:10690C00012606E001312046FFF796FF06460028D7
:10691C00E7D101A8FEF749FF304602B070BD6946C9
:10692C002846FEF720FFE8E7F0B585B0054601A83C
:10693C000C461746FEF71AFA0023C5E90033AB6084
:10694C002368D3E9064604EBC606B44211D0386876
:10695C002146FEF735FC50B1214602A8FEF703FF95
:10696C0002A92846FFF7B3FF03A8FEF71EFF083461
:10697C00EBE701A8FEF708FA284605B0F0BD0000C9
:10698C002DE9F0430B689B7A91B006460F46904672
:10699C0033B9C0E900338360304611B0BDE8F083F1
:1069AC0011680D7E002D58D120232A4603A8CDE96D
:1069BC000835FEF778FB039B01932B4B2B49009377
:1069CC0008AA2B460120FDF789FE03A8FDF79AFFC4
:1069DC001C23ADF82230D8F800309A8AADF8382054
:1069EC00DB8AADF83A303B68214A1888009508A933
:1069FC00FDF75AFD002830DB3B68D3E9064304EB76
:106A0C00C3090834A4F10803994522D054F8083C72
:106A1C00DB89002BF5D0102200210DEB0200039531
:106A2C0001F060F854F8083CD9893B6803AA18882F
:106A3C0000951323FDF756FD0028E2D010AB184447
:106A4C0003A900F8345C54F8080C3C30FDF7FBFF4C
:106A5C00D7E7D8F8003001221A764246394630463C
:106A6C00FFF762FF98E700BF897E0B00A87D0B0043
:106A7C00256C0B00F0B50B689B7A85B006460D466D
:106A8C002BB901A8FFF70AFE01A8FEF79DFE2B68A3
:106A9C00D3E9034704EBC707BC4209D02246294679
:106AAC0001A8FFF76DFF01A8FEF7A0FE0834F3E77D
:106ABC0030462946FFF7FAFE304605B0F0BD00001F
:106ACC002DE9F043054693B0086807920F464968D4
:106ADC0098460AAC414B049303C405AB4FF0000934
:106AEC0083E80300CDE90899FEF716FD3C4B0893AB
:106AFC00FEF712FD2968036809934A4604A8FDF7BE
:106B0C00FBFC0AAE044638B12B684FF6FF721A80B4
:106B1C00204613B0BDE8F08339462846FEF786FCC4
:106B2C0003A8FEF723F9FEF7F7FC07682946183788
:106B3C003046FEF730FE31463846FFF791F90746EE
:106B4C000BA8FEF732FE4FF020091FBB3246254B37
:106B5C00254E2649009332202346CDE90A94FDF7B1
:106B6C00BDFD3068FDF70AFD2B688DF80C40214601
:106B7C0018881F4CFDF77AFC3068FDF7F7FC0123F1
:106B8C008DF80C302B684FF6FF721A8003A8FEF7B5
:106B9C00FBF8BDE703A8FEF7F7F8164B0093134973
:106BAC00234632460120CDE90A94FDF797FDB8F152
:106BBC00000FADD029463046FFF75CFFDDE90A53E4
:106BCC0005EBC307BD4205D028460121FEF7A4FB07
:106BDC000835F7E73046FEF709FE99E70300180081
:106BEC00255F0B00BB7E0B00F0E60320A87D0B009D
:106BFC00FCFEFFFFD77E0B0013B50446CDE9003237
:106C0C00FEF7E0FB009B019900222046FFF758FF9E
:106C1C00204602B010BD00002DE9F04F202395B0A6
:106C2C000026CDE90C36664B009305460F463346DD
:106C3C006449DFF89491DFF88C81DFF890A10CAAFD
:106C4C000120FDF74BFD2B68B34240F2B58003A841
:106C5C00FEF7DCFA05A8FEF799FB4FF02A0B6B68E0
:106C6C00039A0BFB06FB5B44D98B1181198C518168
:106C7C00598C9181988CD081D88C10821B8D538229
:106C8C00D7E9033203EBC2029A427DD01868C48A5A
:106C9C008C4277D3848A8C4274D85968059006A8A4
:106CAC00FEF73FF8DDF814C0DDF80CE0BCE80F008F
:106CBC000EF128040FC4DCF8003023602B89AEF8E9
:106CCC0002306B68039C5B445B7E13F0020F6ED149
:106CDC006B685B445B7E580742BF237943F0040327
:106CEC0023716B685B445B7E190742BF237943F0C9
:106CFC00080323716B685B445B7EDA0642BF237921
:106D0C0043F0100323716B685B4407AA5B7E9B0600
:106D1C0042BF237943F0200323716B689B440BF132
:106D2C00040396460BF1140B186859689446ACE8AA
:106D3C00030008335B456246F6D11868CCF80000B6
:106D4C0071460CA8FEF768F80DF1300CBCE80F008A
:106D5C0014340FC4DCF80030236003A90CA8FEF730
:106D6C0002FD0CA907F11800FFF7B1FD04460DA8B0
:106D7C00FEF71BFD9CB92023CDE90C34CDF800A007
:106D8C00234607E008337FE720240023CDE90C439A
:106D9C00CDF800900CAA41463220FDF79FFC06A8C6
:106DAC00FEF703FD04A8FEF700FD01364BE723793F
:106DBC0043F0020323718BE715B0BDE8F08F00BFE1
:106DCC00F47E0B00A87D0B000F7F0B003E7F0B00A9
:106DDC008842F8B504460D46164614D9904213D293
:106DEC00A2F12406751AA1F124072C44B74218D03D
:106DFC001CB131462046FEF71BFF3046FEF7F6FB72
:106E0C00243E243CF2E70CD0B5420AD01CB12946F2
:106E1C002046FEF70DFF2846FEF7E8FB2435243408
:106E2C00F2E7F8BDF8B50E1E054613DD242707FB67
:106E3C0006F0FDF7DFFC044658B1D5E9001207FB5C
:106E4C000212FFF7C5FF2868FDF7DCFC2C60AE6072
:106E5C000120F8BD0024F6E72DE9F0439DB001AD0B
:106E6C00064628460C46FDF7BCFF03A8FEF7BBFF01
:106E7C0006A8FEF7B8FF30697169F28913AB03C33A
:106E8C0085E803003378B1688DF8243006A8FEF746
:106E9C001EFFB289716803A8FEF719FF94F96830D8
:106EAC007F2B13AF03D09DF924209A425CDB94F91D
:106EBC0069307F2B03D09DF924209A4254DC04F1D5
:106ECC0050013846FEF77CFD149B002B52DD139EBF
:106EDC0006EBC309B14550D030462946FDF76DFF8E
:106EEC00083680460028F5D01398FDF78BFCB8F1D6
:106EFC00000F39D029462046FEF725FDA0B32946C0
:106F0C002046FFF768FA064670B304F15C01384678
:106F1C00FEF7A1FD149B002B12DD06A8FEF724F949
:106F2C00804603A8FEF720F9DDE9133203EB420299
:106F3C009A4225D033F8021B884501D08842F7D1FC
:106F4C001398FDF75FFC7EB129462046FEF7B8FD8D
:106F5C0050B1236AB3B16369139501336361636AFA
:106F6C00394604F1180098472846FEF73FFB1DB040
:106F7C00BDE8F0834FF00108B6E74FF00008B3E727
:106F8C000026DDE7D4F83080B8F1000F07D0636934
:106F9C00013363612946636B04F12800E3E7D4F8FD
:106FAC000CC0BCF1000F25D06369226901339342F8
:106FBC006361D9D8242253432A4603CA243B0CEBE1
:106FCC0003064CF80300716006F1080003A9FEF7F4
:106FDC0046FE06A906F11400FEF741FE9DF9243089
:106FEC0086F82030D4E904329A42BDD34046FDF7EE
:106FFC0033FAB9E795E803000DF1280888E8030097
:10700C0003A90CA8FEF7F7FD06A90FA8FEF7F3FDE0
:10701C009DF824308DF84830414638466668FEF7B6
:10702C0007FED4E90113994210DA2368616824221F
:10703C0002FB063606F1240002FB01323146FFF753
:10704C00C7FE86B963680133636005E001312046F1
:10705C00FFF7E8FE0028E8D13846FEF7C7FA4046AD
:10706C00FEF7C4FA80E739463046FEF7E1FDE9E762
:10707C00024800230360FDF771BA00BFF0E603205D
:10708C00F8B506460D468F180024BD420CD0336867
:10709C0015F8011B9B6830469847031E01DB1C4406
:1070AC00F3E7002C08BF1C462046F8BD13B5044678
:1070BC00084659B1019100F05DFD23680199DB6828
:1070CC000246204602B0BDE81040184702B010BD81
:1070DC0003689B68184738B50D210546FFF7F8FF84
:1070EC000A2104462846FFF7F3FF204438BD30B58B
:1070FC008BB00023012A8DF8243098BF0A2209ACEA
:10710C000D46B1FBF2F101FB125303F0FF03092B07
:10711C0094BF30333733DBB2AA4204F8013DEFD9C8
:10712C002146FFF7C3FF0BB030BD2DE9F04186B00F
:10713C0000AF05460E46381D142114463B60FDF782
:10714C0071FB13280ED8391D2846FFF7AFFF0446F4
:10715C001EB12846FFF7BFFF044420461837BD4632
:10716C00BDE8F08100F1080323F00703E846ADEB1E
:10717C00030D2246411C3B686846FDF753FB6946EC
:10718C002846FFF793FF0446C546E1E70023406815
:10719C001A461946FDF7E6BA014B024A1A607047C7
:1071AC00F8E60320DE7F0B00024B1A68024B1A60D4
:1071BC00704700BF74E10320FCE6032010B50446C1
:1071CC00FDF774FA844208D01CB1BDE81040FDF7FD
:1071DC005DBABDE81040FDF761BA10BD70B505464B
:1071EC000E461446FDF762FA50B144EA062444EA0E
:1071FC000540FDF743FABDE87040E720FDF75EBAA5
:10720C0070BD0000014B00229A60704700E703201C
:10721C00014B1860704700BF78E1032008B50B4B99
:10722C0043B100F067F903681B699847002801DD3A
:10723C00AFF30080064B43B100F0DAFA03681B6928
:10724C009847002801DDAFF3008008BD0000000066
:10725C000000000008B5FFF7E1FFFDF7E5F8014B72
:10726C00186008BD58E703200548064A064908B5CA
:10727C00121A00F00FFC054B054A1A6008BD00BF3E
:10728C0000F4032004F40320A0820B0000F403207C
:10729C001E1C279A07B5002300931A466FF077013E
:1072AC00FDF736FA03B05DF804FB000007B5438820
:1072BC000A2B08D0502B0BD1094B1B684BB103B0D8
:1072CC005DF804EB1847FFF7E5FF03B05DF804FB2E
:1072DC00002300931A466FF07701FDF719FAF4E7D3
:1072EC0014E7032010B512480021FDF7B3FA114B37
:1072FC001A68114B9A42114B0CBF012200221A70D2
:10730C0001D0FFF7B1FFFDF77FF8044600F0F2FB68
:10731C000B4B13B12046AFF3008000210848FDF75A
:10732C0061FABDE8104007480021FDF7E7B900BF3E
:10733C001D720B0000F403201E1C279A10E703207B
:10734C0000000000B9720B00704710B518210446FC
:10735C00FCF79DFE204610BDF0B5037D062B8DB0CD
:10736C000E4600F104074FF0000412D000F108059E
:10737C0015F8011D0A223046FFF7B9FEAF4204444E
:10738C0019D0002CF4D02E213046FFF7A1FE044476
:10739C00EEE72F236A4639460A208DF80040FDF7A8
:1073AC00F5F8684600F0E6FB33680246DB68694690
:1073BC0030469847044620460DB0F0BD10B5054B3D
:1073CC000446112240F8043B002100F08BFB2046C0
:1073DC0010BD00BF08800B000346074A10B543F8E8
:1073EC00042B01F1100251F8044B43F8044B914269
:1073FC00F9D10A781A7010BD08800B0010B59DF8F1
:10740C00084044EA032343EA024242EA01610423AE
:10741C004160037510BD000007B5064B0360CB78C7
:10742C0000938B784A780978FFF7E8FF03B05DF892
:10743C0004FB00BF08800B00417470477047704715
:10744C0008B50021007CFDF701F940EAE07008BDA9
:10745C0008B50121007CFDF7F9F840EAE07008BDA1
:10746C0008B5007CFDF7EAF820EAE07008BD08B525
:10747C00007CFDF7DBF820EAE07008BD13B504468C
:10748C00007C0191FDF7DAF80028019901DC607CA1
:10749C0020B1207CFDF7E2F820EAE07002B010BDCC
:1074AC00007CFDF7E3B810B514210446FCF7EFFDA2
:1074BC00204610BD10B54FF47A73044608460021DF
:1074CC00C4E90113044B2360012320746374114637
:1074DC00FDF79CF8204610BD1C800B00007C0022A0
:1074EC00FDF79CB810B514220446002100F0FAFAFE
:1074FC00204610BD10B50F4C88B003A8FFF7F2FF63
:10750C002178BFF35B8F11F001010FD1204601915F
:10751C00FCF7BFFD019948B103AA0748FFF7CAFF62
:10752C002046FCF7BBFD054800F09EFA024808B067
:10753C0010BD00BF18E703201CE7032049740B00A3
:10754C0070474174704708B5007CFDF74FF820EA8E
:10755C00E07008BD08B5007CFDF728F820EAE07063
:10756C0008BD08B5007CFDF731F840EAE07008BDB5
:10757C0008B5007CFDF722F840EAE07008BD007CFD
:10758C00FDF72CB837B5457C04462DB1207C03B0F3
:10759C00BDE83040FDF702B8007C0191FDF726F8FC
:1075AC0000280199F2DC284603B030BD10B5142137
:1075BC000446FCF76CFD204610BD000010B54FF4DE
:1075CC007A730446084611460022C4E90123044B91
:1075DC002360012320746374FDF710F8204610BD5E
:1075EC004C800B00002240681146FDF7B3B8002216
:1075FC0040681146FDF7CEB8002240681146FDF7F1
:10760C00D9B840680022FDF7CDB84068002281F05F
:10761C000101FDF7B7B8002340681A461946FDF77B
:10762C00A9B8002240681146FDF784B840680022D2
:10763C000221FDF787B8002340681A46FDF772B89F
:10764C00024B04225A60024A1A60704730E703204A
:10765C007C800B00002340681A46FDF763B8406835
:10766C0000220221FDF76EB8002240681146FDF79A
:10767C0061B8002240681146FDF76CB800234068E1
:10768C001A461946FDF76EB8002340681A4619468B
:10769C00FDF770B840680021FDF794B840680021F0
:1076AC00FDF798B84068002281F00101FDF76AB837
:1076BC0040680022FDF776B8002240681146FDF7BD
:1076CC0079B8002240681146FDF764B82DE9F04303
:1076DC0095B014460D460746FFF770FE00211C229C
:1076EC000DA8009100F0FEF940230C9320466B4648
:1076FC000CAA0021FCF780FE044600284BD1024660
:10770C0001216868FDF726F8022180462246686848
:10771C00FDF720F8009E81462146002E3BD0002923
:10772C0039D17368022B03D00A2B11D0F669F4E718
:10773C00B8F1000FFAD0716906A8043107ADFFF754
:10774C006BFE0FCD3C1D0FC42B6823704146EDE73B
:10775C00B9F1000FEAD07469102201A800F0C2F947
:10776C0006238DF8143001AD04F1080318341868A1
:10777C0059682A4603C20833A3421546F7D101A91A
:10778C0006A807ADFFF728FE0FCD3C1D0FC42B68D4
:10779C0023704946CAE70098FCF726FE384615B018
:1077AC00BDE8F083024B034A1A6000225A6070470E
:1077BC0038E70320B8800B007047000038B504464A
:1077CC0014252A46002100F08DF925804025074913
:1077DC0025812846258200F02FF804496060284650
:1077EC0000F02AF8E060204638BD00BFEC800B00AA
:1077FC0030B50E4D2978BFF35B8F11F0010487B0C3
:10780C0011D12846FCF745FC68B101A8FFF7D6FF5B
:10781C0001AA21460648FFF7D1FE2846FCF73EFC9C
:10782C00044800F021F9024807B030BD40E70320BE
:10783C0044E70320C5770B00FCF727BC08B5FCF721
:10784C00F9FF0000014900F0F9B800BF08810B00F6
:10785C007FB500241023CDE90234036815469E69D8
:10786C0012686B46CDE90044B0479DF8043003F034
:10787C000603062B03BF009B2B600120204604B09F
:10788C0070BD0098904214BF012006207047000084
:10789C0010B5034B0360044600F0CDF8204610BD34
:1078AC0048810B0010B50446FFF7F2FF2046082173
:1078BC00FCF7EDFB204610BD2DE9F0411F46DDE93C
:1078CC000834DDF8188098450646154607D1079907
:1078DC0000F0B4F818B165710020BDE8F0813946AC
:1078EC00304600F0ABF80028F6D00123C4F8008035
:1078FC002571A371F0E738B515461C4600F09EF8CB
:10790C0020B10823E36006232560237138BD73B5CD
:10791C0005460C4601921E4600F090F850B9032E15
:10792C0008D82368019A5B692946204602B0BDE855
:10793C007040184702B070BD10B5034B036004468D
:10794C00FFF7A6FF204610BDA8810B0010B504461A
:10795C00FFF7F2FF20460C21FCF799FB204610BDE7
:10796C00F7B5089F974205460E4614460AD0A868FC
:10797C0002680897156A31462246AC4603B0BDE84A
:10798C00F04060471946019300F058F8019B00281D
:10799C00EDD0062003B0F0BD2DE9F14F0D46194690
:1079AC00DDE90A4BDDE90CA681461746984600F046
:1079BC0045F890B1002D3460377109DB61198A45A7
:1079CC000CBF06210121B171002001B0BDE8F08F80
:1079DC000235F9D10123B371F6E7544506D1594666
:1079EC00484600F02BF808B17771EDE7D9F808009C
:1079FC000368CDE90CA6CDE90A4BDC693A4643464F
:107A0C002946A44601B0BDE8F04F60472DE9F0418E
:107A1C0007460C4615461E46FFF76DFF48B9B86879
:107A2C0003689F692A4633462146BC46BDE8F041AF
:107A3C006047BDE8F081704700207047814208B56F
:107A4C000ED0406803782A2B0CD049680B782A2B6F
:107A5C0008BF013100F07CF8B0FA80F0400908BD95
:107A6C000120FCE70020FAE7002301461A461846DD
:107A7C0000F094B810B501390244904201D10020B5
:107A8C0005E0037811F8014FA34201D0181B10BD7B
:107A9C000130F2E70A44914200F1FF3300D1704704
:107AAC0010B511F8014B03F8014F9142F9D110BDFB
:107ABC00884210B501EB020402D98442234607D850
:107ACC00431EA14208D011F8012B03F8012FF8E74F
:107ADC00024401468A4200D110BD13F8014D02F850
:107AEC00014DF7E702440346934200D1704703F877
:107AFC00011BF9E738B5104B1D68AB6B0446B3B9E5
:107B0C001820FCF777FE0246A86320B90B4B0C48F3
:107B1C004221FCF797FE0B490B4BC0E900130B4BB2
:107B2C0083600B23838100210120C2E90401AB6B2C
:107B3C0000221C615A6138BD78E10320E1810B0001
:107B4C00F8810B000E33CDAB34126DE6ECDE050084
:107B5C0010F8012B11F8013B012A28BF9A42F7D0EB
:107B6C00D01A7047034611F8012B03F8012B002A99
:107B7C00F9D17047034613F8012B002AFBD1181AD0
:107B8C000138704710B5024601448A42134603D0AF
:107B9C001C780132002CF8D1181A10BD2DE9F843CD
:107BAC00DFF8B8800646D8F800001F460D4691460F
:107BBC0000F056F8254B1C6834B9254C1C60254B3D
:107BCC0013B11B68C4F8883063681F2B07DDD8F825
:107BDC00000000F047F84FF0FF30BDE8F8834EB3DB
:107BEC00D4F8880088B91C4B23B9D8F8000000F0F1
:107BFC0038F8F0E74FF48470FCF7FCFD0028F4D063
:107C0C000023C0E94033C4F88800636840F823902F
:107C1C0001229A4000EB8301D0F800311343C0F8E5
:107C2C000031022EC1F8807002BFD0F8043113432A
:107C3C00C0F804316368D8F800005A1C0233626043
:107C4C0044F8235000F00EF80020C6E7E8E70320C4
:107C5C005CE703200000000001480B00DCE103207E
:107C6C0070477047704700001D400B0059400B00D7
:107C7C0081400B0085400B00000000002564200AA9
:107C8C000062343235303430302D666234622D343B
:107C9C003734362D623262302D39336630653631E9
:107CAC0031323263360062343235303430312D6645
:107CBC006234622D343734362D623262302D3933D2
:107CCC0066306536313132326336006234323530EB
:107CDC003430342D666234622D343734362D6232B2
:107CEC0062302D39336630653631313232633600CD
:107CFC0062343235303530302D666234622D343793
:107D0C0034362D623262302D39336630653631317E
:107D1C00323263360062343235303530312D6662A2
:107D2C0034622D343734362D623262302D3933665D
:107D3C0030653631313232633600623432353035AB
:107D4C0030342D666234622D343734362D62326213
:107D5C00302D3933663065363131323263360000BE
:107D6C000000000000000000CF480B00C5480B00CD
:107D7C00BB480B00B1480B00A5480B0099480B0001
:107D8C00A1760B00A9760B008D480B0085480B00E3
:107D9C007B480B0071480B00D9760B007769726930
:107DAC006E672E626C650053746172742064697323
:107DBC00636F766572696E67207365727669636549
:107DCC00732E005065657220646576696365206961
:107DDC0073206D697373696E6721004661696C6508
:107DEC006420746F20616C6C6F63617465206D65C9
:107DFC006D6F727921004661696C656420746F2027
:107E0C00617070656E6420706565722043656E7478
:107E1C0072616C206465766963652E00436F6E6ECB
:107E2C0065637465642062792043656E7472616C5D
:107E3C00206465766963652E00446973636F6E6EAA
:107E4C0065637465642062792072656D6F7465205A
:107E5C006465766963652E004661696C656420749F
:107E6C006F20617070656E6420646973636F7665F2
:107E7C0072656420736572766963652E0053746154
:107E8C00727420646973636F766572696E672063C0
:107E9C006861726163746572697374696373206F6E
:107EAC006620736572766963653A2025732E0043EC
:107EBC00616E6E6F7420616464206E6577207065EE
:107ECC006572206465766963652E004E6577207057
:107EDC0065726970686572616C20697320636F6E7E
:107EEC006E65637465642E004368617261637465CA
:107EFC0072697374696320646973636F7665726504
:107F0C00642E00446973636F7665726564206368E0
:107F1C006172616374657269737469632773206835
:107F2C00616E646C6520697320696E76616C69643E
:107F3C002E004661696C656420746F2061707065F9
:107F4C006E6420646973636F766572656420636820
:107F5C006172616374657269737469632E000000E9
:107F6C000000000000000000094B0B006D4B0B00E3
:107F7C00F14C0B00974B0B000D4B0B00000000005D
:107F8C0000000000054B0B007B4B0B00074B0B005C
:107F9C009D4B0B002D4B0B0000000000000000005F
:107FAC00034B0B00894B0B001D580B00A34B0B0014
:107FBC004D4B0B0000000000000000000000000012
:107FCC000000FB349B5F800000800010000000006C
:107FDC0000006170700025592D256D2D25645425E8
:107FEC00483A254D3A2553257A0061736374696DBF
:107FFC0065000000000000000000000065730B002D
:10800C0055730B0057730B000000000000000000BC
:10801C004B740B00B3740B0089740B008D700B0048
:10802C007B740B004D740B005D740B00AD740B0076
:10803C006D740B0045740B00000000000000000084
:10804C004D750B00B9750B0091750B008D700B0005
:10805C0061750B007D750B006F750B008B750B003C
:10806C004F750B0053750B00000000000000000062
:10807C0043760B0039760B002F760B00F1750B0055
:10808C0099710B0023760B00A1760B00A9760B00DF
:10809C0017760B000F760B0005760B00FB750B00AB
:1080AC00D9760B00000000000000000061760B0088
:1080BC006B760B0075760B007F760B0089760B00C8
:1080CC0095760B00A1760B00A9760B00B1760B0010
:1080DC00BD760B00C5760B00CF760B00D9760B0066
:1080EC0000537431395F53705F6D616B655F7368FA
:1080FC00617265645F7461670000000048810B0069
:10810C00ED800B00A8810B001C810B00CC810B00B7
:10811C004E31305F5F637878616269763131375FF9
:10812C005F636C6173735F747970655F696E666FA2
:10813C00450000000000000010810B009D780B0032
:10814C00B1780B00457A0B00457A0B001B790B00BC
:10815C005D780B0003790B00C5780B008F780B0052
:10816C00A8810B0078810B0010810B004E31305F21
:10817C005F637878616269763132305F5F73695F13
:10818C00636C6173735F747970655F696E666F455C
:10819C0000000000000000006C810B0045790B0012
:1081AC0059790B00457A0B00457A0B001B790B00B3
:1081BC005D780B00197A0B00A5790B006D790B001B
:1081CC0048810B00D4810B00537439747970655F4E
:1081DC00696E666F005245454E54206D616C6C6F34
:1081EC006320737563636565646564002F6D6E74DD
:1081FC002F776F726B73706163652F776F726B7310
:10820C00706163652F4743432D31302D7069706564
:10821C006C696E652F6A656E6B696E732D4743438F
:10822C002D31302D706970656C696E652D34385F39
:10823C0032303230313132345F31363036313830E1
:10824C003634312F7372632F6E65776C69622F6EC3
:10825C0065776C69622F6C6962632F7374646C69E7
:10826C00622F72616E642E63000000000D430B00E0
:10827C00D9480B00ED480B007D700B00A5710B006D
:10828C00B5710B0011720B004D760B00B1770B0022
:04829C0000000000DE
:0482A00000000000DA
:1082A400FF001027F67F0B007CE103200000000094
:1082B40000000000000000000000000000000000BA
:1082C40000000000000000000000000000000000AA
:1082D400000000000000000000000000000000009A
:1082E400000000000000000000000000000000008A
:1082F400000000000000000000000000000000007A
:10830400000000000000000000000000ECE7032073
:10831400FFFFFFFF00000102030405060708090A26
:108324000B0C0D0E0F101112131415161718191A21
:088334001B1C1D1E1F20280068
:04833C007856341229
:04000003B000401CED
:00000001FF
