:02000002B0004C
:1040000000400B00F8520B00000006000C000502F7
:084010000401810C0000000016
:044018001C500B002D
:10401C0009480A49884208B505D0094A824202D0AB
:10402C00121A00F043FF0748074A0021121A00F049
:10403C004BFF014808BD00BF3CE6032064520B0057
:10404C00A8E60320A8E60320EDE7032070B5074E91
:10405C00074C00F095FBA41BA4080025AC4200D132
:10406C0070BD56F8043B98470135F7E738520B0002
:10407C005C520B0000F013B808B500F023F8BDE853
:10408C00084000F035BB00F017BA00F01DBA0078FC
:10409C00B0FA80F04009704701230370704708B5EF
:1040AC0000F076FC4FF4165100F066FC00F0F4F9C9
:1040BC000021084600F04AFE0121BDE808400846F0
:1040CC0000F044BE70B50021012000F050FE02202B
:1040DC0000F076F80121084600F049FE0A2000F0B5
:1040EC006FF80021012000F042FE0121002000F0B9
:1040FC0057FE3A24064690FBF4F400F049FC39369E
:10410C0005460FDA2D2100F081FA61420A22284679
:10411C0000F08BFA284600F07CFABDE870403220A3
:10412C0000F0BABA2146F1E708B50120002100F0F1
:10413C0037F9064B0022C3E90022A2F580329A60BF
:10414C00BDE80840032000F01BB900BFA8E603201F
:10415C0008B5024B1B689B68019308BD68020300FD
:10416C0008B5024B1B68DB68019308BD68020300AD
:10417C0008B5024B1B689B68019308BD2C02030019
:10418C0008B5024B1B68DB68019308BD2C020300C9
:10419C0008B5024B1B681B69019308BD2C02030078
:1041AC0008B5024B1B68DB6C019308BD2C020300A5
:1041BC0008B5024B1B685B68019308BD180203002D
:1041CC0008B5024B1B68DB68019308BD180203009D
:1041DC0008B5024B1B685B69019308BD180203000C
:1041EC0008B5024B1B685B6C019308BD48020300C9
:1041FC0008B5024B1B685B69019308BD64020300A0
:10420C0008B5024B1B68DB68019308BD3C02030038
:10421C0008B5024B1B681B69019308BD3C020300E7
:10422C0008B5024B1B685B69019308BD3C02030097
:10423C0008B5024B1B689B69019308BD3C02030047
:10424C0008B5024B1B68DB69019308BD3C020300F7
:10425C0008B5024B1B681B6A019308BD3C020300A6
:10426C0008B5024B1B689B6A019308BD3C02030016
:10427C0008B5024B1B681B6C019308BD3C02030084
:10428C0008B5024B1B681B6A019308BD280203008A
:10429C0008B5024B1B685B6A019308BD280203003A
:1042AC0008B5024B1B689B6A019308BD28020300EA
:1042BC0008B5024B1B68DB6A019308BD280203009A
:1042CC0008B5024B1B681B6B019308BD2802030049
:1042DC0008B5024B1B685B6B019308BD28020300F9
:1042EC0008B5024B1B681B6C019308BD2802030028
:1042FC0008B5024B1B68DB69019308BD3002030053
:10430C0008B5024B1B681B6A019308BD3002030001
:10431C0008B5024B1B681B68019308BD4C020300D7
:10432C0008B5024B1B685B68019308BD4C02030087
:10433C0008B5024B1B681B69019308BD4C020300B6
:10434C0008B5024B1B685B69019308BD4C02030066
:10435C0008B5024B1B689B69019308BD4C02030016
:10436C0008B5024B1B68DB69019308BD4C020300C6
:10437C0008B5024B1B681B6A019308BD4C02030075
:10438C0008B5024B1B685B68019308BD2002030053
:10439C0008B5024B1B685B69019308BD2002030042
:1043AC0008B5024B1B68DB6A019308BD20020300B1
:1043BC0008B5034B1B68D3F88830019308BD000087
:1043CC002002030008B5034B1B68D3F8943001930B
:1043DC0008BD00002002030008B5024B1B685B6897
:1043EC00019308BD4002030008B5024B1B689B6893
:1043FC00019308BD4002030008B5024B1B68DB6843
:10440C00019308BD4002030008B5024B1B681B69F1
:10441C00019308BD4002030008B5024B1B685B69A1
:10442C00019308BD4002030008B5024B1B689B6951
:10443C00019308BD4002030008B5024B1B68DB6901
:10444C00019308BD4002030008B5024B1B681B6AB0
:10445C00019308BD4002030008B5024B1B681B6B9F
:10446C00019308BD4002030008B5024B1B685B6B4F
:10447C00019308BD4002030008B5024B1B681B6C7E
:10448C00019308BD4002030008B5024B1B685B6C2E
:10449C00019308BD4002030008B5024B1B68DB68A2
:1044AC00019308BD4402030008B5024B1B68DB6B8B
:1044BC00019308BD4402030008B5024B1B681B683E
:1044CC00019308BD1C02030008B5024B1B685B6816
:1044DC00019308BD1C02030008B5024B1B681B6C42
:1044EC00019308BD1C02030008B5024B1B685B6CF2
:1044FC00019308BD1C020300002240681146FFF71F
:10450C00A3BF002240681146FFF7AEBF40680022EF
:10451C00FFF7A2BF4068002281F00101FFF78CBFBA
:10452C00002340681A461946FFF77EBF00234068F7
:10453C001A461946FFF770BF002240681146FFF774
:10454C0063BF002240681146FFF74EBF406800224F
:10455C000221FFF751BF002340681A46FFF73CBF0A
:10456C00024B03225A60024A1A607047B8E60320D5
:10457C0038500B0010B5044608462170FFF7B8FE02
:10458C0000236360204610BD054B02221A60054BC8
:10459C00054A9A600020C3E90000FFF7F1BE00BF96
:1045AC00CCE60320C0E603200000FFFF02480023F6
:1045BC000360FFF715BE00BFD0E60320F8B5064632
:1045CC000D468F180024BD420CD0336815F8011B22
:1045DC009B6830469847031E01DB1C44F3E7002C14
:1045EC0008BF1C462046F8BD13B50446084659B111
:1045FC00019100F09FFC23680199DB68024620467C
:10460C0002B0BDE81040184702B010BD03689B68AB
:10461C00184738B50D210546FFF7F8FF0A21044667
:10462C002846FFF7F3FF204438BD30B58BB000238C
:10463C00012A8DF8243098BF0A2209AC0D46B1FB33
:10464C00F2F101FB125303F0FF03092B94BF30333B
:10465C003733DBB2AA4204F8013DEFD92146FFF70C
:10466C00C3FF0BB030BD002340681A461946FFF754
:10467C00D3BE0000014B024A1A607047D4E60320F7
:10468C006C500B00024B1A68024B1A60704700BF4B
:10469C003CE60320D8E603200021FFF779BE00009A
:1046AC00014B00229A607047DCE60320014B186036
:1046BC00704700BF40E6032008B50B4B43B100F038
:1046CC0067F903681B699847002801DDAFF3008088
:1046DC00064B43B100F082FB03681B699847002826
:1046EC0001DDAFF3008008BD0000000000000000F9
:1046FC0008B5FFF7E1FFFFF76BFD014B186008BD34
:10470C0040E703200548064A064908B5121A00F08E
:10471C00CDFB054B054A1A6008BD00BF00F4032011
:10472C0004F4032060520B0000F403201E1C279A93
:10473C0007B5002300931A466FF07701FFF742FE8E
:10474C0003B05DF804FB000007B543880A2B08D0C2
:10475C00502B0BD1094B1B684BB103B05DF804EB2C
:10476C001847FFF7E5FF03B05DF804FB0023009347
:10477C001A466FF07701FFF725FEF4E7F0E6032009
:10478C0010B512480021FFF7AFFE114B1A68114B00
:10479C009A42114B0CBF012200221A7001D0FFF774
:1047AC00B1FFFFF705FD044600F096FB0B4B13B170
:1047BC002046AFF3008000210848FFF775FEBDE8E6
:1047CC00104007480021FFF7F3BD00BFB9460B00AE
:1047DC0000F403201E1C279AECE6032000000000C6
:1047EC0055470B00704710B518210446FFF74DFCD8
:1047FC00204610BDF0B5037D062B8DB00E4600F1A2
:10480C0004074FF0000412D000F1080515F8011D43
:10481C000A223046FFF709FFAF42044419D0002C9E
:10482C00F4D02E213046FFF7F1FE0444EEE72F239F
:10483C006A4639460A208DF80040FFF7D9FC6846D5
:10484C0000F078FB33680246DB68694630469847CF
:10485C00044620460DB0F0BD10B5054B04461122A0
:10486C0040F8043B002100F02FFB204610BD00BF98
:10487C0094500B000346074A10B543F8042B01F182
:10488C00100251F8044B43F8044B9142F9D10A78C9
:10489C001A7010BD94500B0010B59DF8084044EAF6
:1048AC00032343EA024242EA016104234160037597
:1048BC0010BD000007B5064B0360CB7800938B78D6
:1048CC004A780978FFF7E8FF03B05DF804FB00BFF6
:1048DC0094500B00417470477047704708B5002125
:1048EC00007CFFF735FD40EAE07008BD08B50121FA
:1048FC00007CFFF72DFD40EAE07008BD08B5007C98
:10490C00FFF71EFD20EAE07008BD08B5007CFFF73C
:10491C000FFD20EAE07008BD13B50446007C019140
:10492C00FFF70EFD0028019901DC607C20B1207C92
:10493C00FFF716FD20EAE07002B010BD007CFFF717
:10494C0017BD10B514210446FFF79FFB204610BD80
:10495C0010B54FF47A73044608460021C4E90113DC
:10496C00044B23600123207463741146FFF7D0FCC1
:10497C00204610BDA8500B00007C0022FFF7D0BCD5
:10498C0010B514220446002100F09EFA204610BDFA
:10499C0010B50F4C88B003A8FFF7F2FF2178BFF3D6
:1049AC005B8F11F001010FD120460191FFF76FFBD6
:1049BC00019948B103AA0748FFF7CAFF2046FFF741
:1049CC006BFB054800F06CFA024808B010BD00BF44
:1049DC00F4E60320F8E60320E5480B007047417429
:1049EC00704708B5007CFFF73BFC20EAE07008BD7F
:1049FC0008B5007CFFF70CFC20EAE07008BD08B598
:104A0C00007CFFF715FC40EAE07008BD08B5007C9F
:104A1C00FFF706FC40EAE07008BD007CFFF710BC15
:104A2C0037B5457C04462DB1207C03B0BDE8304041
:104A3C00FFF7E6BB007C0191FFF712FC00280199FF
:104A4C00F2DC284603B030BD10B514210446FFF744
:104A5C001CFB204610BD000010B54FF47A730446C1
:104A6C00084611460022C4E90123044B23600123AC
:104A7C0020746374FFF7FCFB204610BDD8500B006C
:104A8C007047F8B5064615460C468F18BC4206D042
:104A9C00336814F8011B9B6830469847F6E72846A4
:104AAC00F8BD007C0022FFF7EBBB007C0021FFF778
:104ABC00EFBB007C0021FFF7F3BB007C0021FFF76C
:104ACC00F7BB007C0021FFF7FBBB10B5142104469B
:104ADC00FFF7DBFA204610BD10B54FF47A7304468D
:104AEC0008460021C4E90113034B236020741146CE
:104AFC00FFF7F6FB204610BD08510B000022406862
:104B0C001146FFF781BC002240681146FFF79CBCA0
:104B1C00002240681146FFF7A7BC40680022FFF74F
:104B2C009BBC4068002281F00101FFF785BC00238B
:104B3C0040681A461946FFF777BC002240681146B8
:104B4C00FFF752BC406800220221FFF755BC00233E
:104B5C0040681A46FFF740BC024B04225A60024AD6
:104B6C001A6070470CE7032030510B00002340689B
:104B7C001A46FFF731BC406800220221FFF73CBC0B
:104B8C00002240681146FFF72FBC002240681146F6
:104B9C00FFF73ABC002340681A461946FFF73CBCA5
:104BAC00002340681A461946FFF73EBC40680021B6
:104BBC00FFF762BC40680021FFF766BC406800222A
:104BCC0081F00101FFF738BC40680022FFF744BCBC
:104BDC00002240681146FFF747BC0022406811468E
:104BEC00FFF732BC2DE9F04395B014460D4607464D
:104BFC00FFF732FE00211C220DA8009100F064F991
:104C0C0040230C9320466B460CAA0021FFF7A8FA10
:104C1C00044600284BD1024601216868FFF7F4FBDB
:104C2C000221804622466868FFF7EEFB009E814613
:104C3C002146002E3BD0002939D17368022B03D0BA
:104C4C000A2B11D0F669F4E7B8F1000FFAD07169AC
:104C5C0006A8043107ADFFF72DFE0FCD3C1D0FC488
:104C6C002B6823704146EDE7B9F1000FEAD0746967
:104C7C00102201A800F028F906238DF8143001AD9C
:104C8C0004F108031834186859682A4603C208331B
:104C9C00A3421546F7D101A906A807ADFFF7EAFD17
:104CAC000FCD3C1D0FC42B6823704946CAE70098F2
:104CBC00FFF74EFA384615B0BDE8F083024B034AB5
:104CCC001A6000225A60704714E703206C510B00E5
:104CDC00232813B502D9002002B010BDA0F10B039C
:104CEC00022B1AD8174C2178BFF35B8F11F00101FE
:104CFC000BD120460191FFF7CAF9019928B112484E
:104D0C00FFF738FC2046FFF7C7F90F4B1878FFF771
:104D1C00F7FA0028DFD10120DEE7012809D800F0DE
:104D2C0099F80021007CFFF7D3FA80F00100C0B2A3
:104D3C00D2E709380128EED800F050F8007CFFF7D4
:104D4C0087FAF2E71CE7032020E70320232838B575
:104D5C0004460D460AD8FF2908D0FFF7B9FF28B141
:104D6C0029462046BDE83840FFF702BA38BD38B5B1
:104D7C0004460D46FFF704FAFF2810D0062804D885
:104D8C004D2323FA00F0C30709D42046FFF7A0FFF8
:104D9C0028B129462046BDE83840FFF7F9B938BD9F
:104DAC00FFF7FEB97047000038B5044614252A46B3
:104DBC00002100F089F825804025074925812846E7
:104DCC00258200F06BF804496060284600F066F814
:104DDC00E060204638BD00BFA0510B0030B50E4D31
:104DEC002978BFF35B8F11F0010487B011D12846ED
:104DFC00FFF74DF968B101A8FFF7D6FF01AA2146CC
:104E0C000648FFF729FE2846FFF746F9044800F04C
:104E1C0047F8024807B030BD28E703202CE70320F1
:104E2C00B14D0B007047000038B520251423044603
:104E3C000360856005610649284600F02FF8044997
:104E4C006060284600F02AF8E060204638BD00BFBC
:104E5C00A0510B0030B50E4D2978BFF35B8F11F0CC
:104E6C00010487B011D12846FFF711F968B101A8E8
:104E7C00FFF7DAFF01AA21460648FFF72DFE284668
:104E8C00FFF70AF9044800F00BF8024807B030BDF0
:104E9C0044E7032048E70320314E0B00FFF7F3B83B
:104EAC00002301461A46184600F04CB80A449142B9
:104EBC0000F1FF3300D1704710B511F8014B03F826
:104ECC00014F9142F9D110BD02440346934200D1E7
:104EDC00704703F8011BF9E738B5104B1D68AB6B35
:104EEC000446B3B91820FFF7E7FA0246A86320B9C5
:104EFC000B4B0C484221FFF7EFFA0B490B4BC0E967
:104F0C0000130B4B83600B23838100210120C2E92A
:104F1C000401AB6B00221C615A6138BD40E60320D2
:104F2C00A1510B00B8510B000E33CDAB34126DE612
:104F3C00ECDE0500034613F8012B002AFBD1181AEE
:104F4C00013870472DE9F843DFF8B8800646D8F8E9
:104F5C0000001F460D46914600F056F8254B1C6884
:104F6C0034B9254C1C60254B13B11B68C4F8883030
:104F7C0063681F2B07DDD8F8000000F047F84FF0EE
:104F8C00FF30BDE8F8834EB3D4F8880088B91C4BC9
:104F9C0023B9D8F8000000F038F8F0E74FF484702B
:104FAC00FFF78AFA0028F4D00023C0E94033C4F894
:104FBC008800636840F8239001229A4000EB83013B
:104FCC00D0F800311343C0F80031022EC1F88070C4
:104FDC0002BFD0F804311343C0F804316368D8F829
:104FEC0000005A1C0233626044F8235000F00EF8A3
:104FFC000020C6E7E8E703205CE703200000000080
:10500C00C5440B00A4E603207047704770470000AE
:10501C001D400B0059400B0081400B0085400B00DC
:10502C0000000000000000000000000063450B00C1
:10503C0059450B004F450B0045450B0039450B00FE
:10504C002D450B00B94B0B00C14B0B0021450B0040
:10505C0019450B000F450B0005450B00F14B0B00E0
:10506C006170700025592D256D2D25645425483A05
:10507C00254D3A2553257A0061736374696D65007B
:10508C00000000000000000001480B00F1470B007D
:10509C00F3470B000000000000000000E7480B0085
:1050AC004F490B0025490B00C9450B0017490B0054
:1050BC00E9480B00F9480B0049490B0009490B0062
:1050CC00E1480B000000000000000000E9490B0063
:1050DC00554A0B002D4A0B00C9450B00FD490B002E
:1050EC00194A0B000B4A0B00274A0B00EB490B002B
:1050FC00EF490B0000000000000000008D4A0B007F
:10510C00D74A0B00AF4A0B008F4A0B00B74A0B0073
:10511C00BF4A0B00C74A0B00CF4A0B00000000002F
:10512C00000000005B4B0B00514B0B00474B0B007E
:10513C00094B0B0073460B003B4B0B00B94B0B00A0
:10514C00C14B0B002F4B0B00274B0B001D4B0B00C7
:10515C00134B0B00F14B0B00000000000000000093
:10516C00794B0B00834B0B008D4B0B00974B0B00BB
:10517C00A14B0B00AD4B0B00B94B0B00C14B0B0003
:10518C00C94B0B00D54B0B00DD4B0B00E74B0B0059
:10519C00F14B0B00005245454E54206D616C6C6F09
:1051AC006320737563636565646564002F6D6E744D
:1051BC002F776F726B73706163652F776F726B7380
:1051CC00706163652F4743432D31302D70697065D5
:1051DC006C696E652F6A656E6B696E732D47434300
:1051EC002D31302D706970656C696E652D34385FAA
:1051FC0032303230313132345F3136303631383052
:10520C003634312F7372632F6E65776C69622F6E33
:10521C0065776C69622F6C6962632F7374646C6957
:10522C00622F72616E642E630000000035410B002A
:10523C006D450B0095450B00B9450B0081460B00E5
:10524C0091460B00AD460B00654B0B00C94C0B0097
:04525C00000000004E
:04526000000000004A
:1052640084500B0044E6032000000000000000000E
:10527400000000000000000000000000000000002A
:10528400000000000000000000000000000000001A
:10529400000000000000000000000000000000000A
:1052A40000000000000000000000000000000000FA
:1052B40000000000000000000000000000000000EA
:0C52C4000000000000000000ECE70320E8
:1052D000FFFFFFFF00000102030405060708090A9B
:1052E0000B0C0D0E0F101112131415161718191A96
:0852F0001B1C1D1E1F202800DD
:0452F800785634129E
:040000052003E6B43A
:00000001FF
