:02000004080AE8
:1000000000000A086C110A0800000600060005013D
:080010000402FD0800000000DD
:04001800640F0A085F
:10001C0009480A4908B5884205D0094A824202D0EB
:10002C00121A00F0EFFE0748074A0021121A00F0DE
:10003C00F7FE064808BD00BF00000020D4100A08D7
:10004C007000002070000020F1050020F105002058
:10005C0070B500F035FB0025054E064CA41BA4081A
:10006C00A54200D170BD56F8043B98470135F7E71F
:10007C00B0100A08D0100A0800F014B808B500F047
:10008C0035F8BDE8084000F0D3BA00F0F9B900F03B
:10009C00FFB90078B0FA80F0400970470123037073
:1000AC007047000038B50F4C0121208800F02AFE63
:1000BC000D4B0121188800F025FE08250121208810
:1000CC0000F031FEC82000F073FA0021208800F007
:1000DC002AFEC82000F06CFA013DEFD1BDE8384093
:1000EC0000F0BEB9000000207C00002038B50D4D9A
:1000FC000D4C2888012100F016FE0121208800F00B
:10010C0012FE322000F054FA2888002100F00BFE79
:10011C002088002100F007FEBDE838404FF47A70CB
:10012C0000F046BA000000207C00002008B5012039
:10013C00002100F019F90022054B03201A609A8067
:10014C009A71A2F580329A60BDE8084000F0FCB8C4
:10015C007000002008B5024B1B689B68019308BD1A
:10016C00B001060808B5024B1B68DB68019308BD9B
:10017C00B001060808B5024B1B681B69019308BD4A
:10018C00B001060808B5024B1B685B68019308BDFB
:10019C009C01060808B5024B1B685B69019308BDFE
:1001AC009C01060808B5024B1B685B6C019308BDEB
:1001BC00D001060808B5024B1B689B6C019308BD67
:1001CC00D001060808B5024B1B689B69019308BD5A
:1001DC00C401060808B5024B1B685B6A019308BD95
:1001EC00C401060808B5024B1B689B6A019308BD45
:1001FC00C401060808B5024B1B68DB6A019308BDF5
:10020C00C401060808B5024B1B681B6B019308BDA3
:10021C00C401060808B5024B1B685B6B019308BD53
:10022C00C401060808B5024B1B689B6B019308BD03
:10023C00C401060808B5024B1B681B6C019308BD72
:10024C00C401060808B5024B1B681B6E019308BD60
:10025C00AC01060808B5024B1B685B6E019308BD28
:10026C00AC01060808B5024B1B689B6E019308BDD8
:10027C00AC01060808B5024B1B68DB6E019308BD88
:10028C00AC01060808B5024B1B681B6F019308BD37
:10029C00AC01060808B5024B1B685B6F019308BDE7
:1002AC00AC01060808B5034B1B68D3F880300193EA
:1002BC0008BD0000AC01060808B5024B1B68DB69E1
:1002CC00019308BDB401060808B5024B1B681B6AF4
:1002DC00019308BDB401060808B5024B1B681B68E6
:1002EC00019308BDD801060808B5024B1B681B69B1
:1002FC00019308BDD801060808B5024B1B685B6961
:10030C00019308BDD801060808B5024B1B689B6910
:10031C00019308BDD801060808B5024B1B68DB69C0
:10032C00019308BDD801060808B5024B1B681B6A6F
:10033C00019308BDD801060808B5024B1B689B6CDD
:10034C00019308BDC001060808B5024B1B685B6829
:10035C00019308BDA401060808B5024B1B685B6934
:10036C00019308BDA401060808B5024B1B68DB6AA3
:10037C00019308BDA401060808B5034B1B68D3F80C
:10038C009030019308BD0000A401060808B5034B8A
:10039C001B68D3F89C30019308BD0000A40106082B
:1003AC0008B5024B1B685B68019308BDC8010608C1
:1003BC0008B5024B1B689B68019308BDC801060871
:1003CC0008B5024B1B68DB68019308BDC801060821
:1003DC0008B5024B1B681B69019308BDC8010608D0
:1003EC0008B5024B1B685B69019308BDC801060880
:1003FC0008B5024B1B689B69019308BDC801060830
:10040C0008B5024B1B68DB69019308BDC8010608DF
:10041C0008B5024B1B681B6A019308BDC80106088E
:10042C0008B5024B1B681B6B019308BDC80106087D
:10043C0008B5024B1B685B6B019308BDC80106082D
:10044C0008B5024B1B681B6C019308BDC80106085C
:10045C0008B5024B1B685B6C019308BDC80106080C
:10046C0008B5024B1B68DB68019308BDCC0106087C
:10047C0008B5024B1B68DB6B019308BDCC01060869
:10048C0008B5024B1B681B68019308BDA001060848
:10049C0008B5024B1B685B68019308BDA0010608F8
:1004AC0008B5024B1B685B6C019308BDA0010608E4
:1004BC0070B5002604460D4640F8086FFFF772FE33
:1004CC0028462570FFF7F8FE2046666070BD0000D8
:1004DC0002220020044B1A60044B054A18609880D5
:1004EC0098719A60FFF730BF8C00002080000020CC
:1004FC000000FFFFF8B506460D4600248F18BD42DC
:10050C000CD0336830469B6815F8011B9847031EC6
:10051C0001DB1C44F3E7002C08BF1C462046F8BD49
:10052C0070B505460C46084649B100F0A5FC2B6891
:10053C00024621462846BDE87040DB68184770BD6E
:10054C0003689B6818470023012A98BF0A2230B51C
:10055C008BB00C468DF8243009A92546B4FBF2F477
:10056C0004FB1253DBB2092B94BF30333733DBB2AD
:10057C00AA4201F8013DF0D9FFF7D2FF0BB030BD14
:10058C00002340681A461946FFF72ABF014B024A5E
:10059C001A60704790000020780F0A08024B1A6806
:1005AC00024B1A60704700BF04000020940000202A
:1005BC000021FFF7D1BE00000022014B9A6070476A
:1005CC0098000020014B1860704700BF0800002005
:1005DC0008B5134B43B100F071F903681B699847D8
:1005EC00002801DDAFF300800E4B43B100F016FA8A
:1005FC0003681B699847002801DDAFF300800A4BA4
:10060C000BB1AFF30080094B43B100F091F90368D3
:10061C001B699847002801DDAFF3008008BD00BFBF
:10062C0000000000000000000000000000000000BE
:10063C0008B5FFF7CDFFFFF7ADFD014B186008BD06
:10064C00240500200548064A08B5121A054900F091
:10065C00D9FB054B054A1A6008BD00BF004002409B
:10066C0004400240D0100A08004002401E1C279A89
:10067C00002307B51A466FF077010093FFF786FE4B
:10068C0003B05DF804FB000007B543880A2B08D0C3
:10069C00502B0BD1094B1B684BB103B05DF804EB2D
:1006AC001847FFF7E5FF03B05DF804FB00231A467B
:1006BC006FF077010093FFF769FEF4E7AC000020C0
:1006CC00002110B51148FFF7EBFE114B1A68114BC6
:1006DC009A420CBF012200220F4B1A7001D0FFF777
:1006EC00B1FFFFF74FFD044600F0A2FB0B4B13B11B
:1006FC002046AFF3008000210848FFF7B9FEBDE8A3
:10070C00104000210648FFF737BE00BFD1050A088C
:10071C00004002401E1C279AA80000200000000088
:10072C0095060A08704710B50446182100F060FBC6
:10073C00204610BDF8B50E46002400F10807051D33
:10074C0017F8011D0A223046FFF7FDFEAF420444A4
:10075C0001D12046F8BD002CF2D02E213046FFF7F7
:10076C00EFFE0444ECE7000010B50446044B1122E4
:10077C00002140F8043B00F053FB204610BD00BFA5
:10078C00A00F0A080346074A10B543F8042B01F1E1
:10079C00100251F8044B914243F8044BF9D10A78FA
:1007AC001A7010BDA00F0A08024AC0E900210422E9
:1007BC0002757047A00F0A0810B59DF8084044EA6E
:1007CC000324042344EA024444EA016444600375AC
:1007DC0010BD000037B5044D05609DF8185000950C
:1007EC00FFF7EAFF03B030BDA00F0A084174704751
:1007FC007047704708B50021007CFFF785FD40EA83
:10080C00E07008BD08B50121007CFFF77DFD40EAD2
:10081C00E07008BD08B5007CFFF76EFD20EAE070C3
:10082C0008BD08B5007CFFF75FFD20EAE07008BD4D
:10083C0038B50446007C0D46FFF75EFD002801DC50
:10084C00607C28B12946207CFFF766FD20EAE07029
:10085C0038BD007CFFF768BD10B50446142100F0CC
:10086C00C7FA204610BD704710B54FF47A73044692
:10087C0008460021C4E90113044B207423600123B2
:10088C0011466374FFF728FD204610BDB40F0A080B
:10089C0010B504461422002100F0C2FA054B204684
:1008AC006360054BE36040F20113238181232382B3
:1008BC0010BD00BFE0000020E101002030B50E4D5E
:1008CC0087B001A8FFF7E4FF2978BFF35B8F11F025
:1008DC0001040ED12846FFF7DCFB50B1214601AADA
:1008EC000648FFF7C1FF2846FFF7D8FB044800F085
:1008FC0083FA024807B030BDB0000020B8000020D9
:10090C00FD070A0810B504461422002100F088FAED
:10091C00054B20466360054BE36040F201132381D5
:10092C008123238210BD00BF6202002063030020DC
:10093C0010B50E4C86B001A8FFF7E4FF2378BFF387
:10094C005B8FDB070ED42046FFF7A3FB50B10121D0
:10095C0001AA0748FFF788FF2046FFF79FFB0548D1
:10096C0000F04AFA024806B010BD00BFB4000020E7
:10097C00CC00002073080A08704741747047704718
:10098C0008B5007CFFF756FC20EAE07008BD08B5FE
:10099C00007CFFF727FC20EAE07008BD08B5007C5E
:1009AC00FFF730FC40EAE07008BD08B5007CFFF7AB
:1009BC0021FC40EAE07008BD007CFFF72BBC70B551
:1009CC00467C04460D462EB12946207CBDE870407D
:1009DC00FFF700BC007CFFF72DFC0028F4DC304650
:1009EC0070BD10B50446142100F002FA204610BD6B
:1009FC004FF0000C10B50446084611464FF47A72BD
:100A0C00C4E901C2044A20742260012262741A46AD
:100A1C00FFF7D8FB204610BDE40F0A0838B50C4D83
:100A2C002978BFF35B8F11F001040FD12846FFF733
:100A3C0030FB58B12146074B074A0848FFF7D8FF4F
:100A4C002846FFF72BFB064800F0D6F9034838BDC3
:100A5C00E40300206C040020E8030020F0040020D4
:100A6C008B090A087047F8B5064615460C468F18D0
:100A7C00BC4206D0336830469B6814F8011B98477B
:100A8C00F6E72846F8BD0022007CFFF7DBBB00210F
:100A9C00007CFFF7DFBB0021007CFFF7E3BB0021EC
:100AAC00007CFFF7E7BB0021007CFFF7EBBB10B528
:100ABC000446142100F09CF9204610BD10B54FF4EB
:100ACC007A73044608460021C4E90113034B11460E
:100ADC0023602074FFF7E6FB204610BD14100A08B3
:100AEC00002240681146FFF773BCF0B5154689B07B
:100AFC0011220E460446002103A800F091F9284665
:100B0C0000F0BAF9002781B273682846009703AA4F
:100B1C00FFF712FC30B139462046FFF745FE204660
:100B2C0009B0F0BD204603A9FFF72CFEF7E7002221
:100B3C0040681146FFF76CBC002240681146FFF775
:100B4C0077BC00224068FFF76BBC0022406881F044
:100B5C000101FFF755BC002340681A461946FFF700
:100B6C0047BC002240681146FFF722BC002202213C
:100B7C004068FFF725BC002340681A46FFF710BCFD
:100B8C000422024B5A60024A1A6070470405002086
:100B9C003C100A08002340681A46FFF701BC0022EB
:100BAC0002214068FFF70CBC002240681146FFF799
:100BBC00FFBB002240681146FFF70ABC00234068C7
:100BCC001A461946FFF70CBC002340681A46194612
:100BDC00FFF70EBC00214068FFF732BC00214068D3
:100BEC00FFF736BC0022406881F00101FFF708BC1A
:100BFC0000224068FFF714BC002240681146FFF742
:100C0C0017BC002240681146FFF702BC70B51546B0
:100C1C008EB0044608A8FFF7A7FD1122002103A8F7
:100C2C0000F0FEF80026284600F026F90A4B009644
:100C3C0081B25B68284603AAFFF77EFB30B13146D0
:100C4C002046FFF7B1FD20460EB070BD204603A92B
:100C5C00FFF798FDF7E700BF04050020024B034A9D
:100C6C001A6000225A6070470C05002078100A08A0
:100C7C00024B986808B1FFF79DBA70471805002021
:100C8C00172870B5044601D9002070BDA0F10D03E2
:100C9C00022B0BD9012824D800F086F80021007C07
:100CAC00FFF7F8FA80F00100C0B2EEE7124E31788F
:100CBC00BFF35B8F11F001050DD13046FFF7E9F959
:100CCC0048B129460D48FFF7F3FB3046FFF7E6F92C
:100CDC000B4800F091F8094B1878FFF7F5FA00284B
:100CEC00D2D1123C012C05D8FFF798FE007CFFF7FF
:100CFC0099FAD7E70120C8E7140500201805002051
:100D0C007D0C0A08172838B504460D460AD8FF2969
:100D1C0008D0FFF7B5FF28B129462046BDE838407A
:100D2C00FFF718BA38BD38B504460D46FFF71AFA66
:100D3C00FF2810D0062804D84D2323FA00F0C3074F
:100D4C0009D42046FFF79CFF28B129462046BDE870
:100D5C003840FFF70FBA38BD002307B51A461946BD
:100D6C0000930348FFF736FD03B05DF804FB00BFAA
:100D7C002805002070470000002370B52025438013
:100D8C001423084E044603803146856005612846CD
:100D9C0000F030F831466060284600F02BF8E06037
:100DAC00204670BDAC100A0830B50E4D87B02978BE
:100DBC00BFF35B8F11F0010411D12846FFF769F9DD
:100DCC0068B101A8FFF7D8FF214601AA0648FFF732
:100DDC0075FE2846FFF762F9044800F00DF802484A
:100DEC0007B030BD4005002044050020810D0A08E5
:100DFC00FFF74DB9FFF749B9002301461A461846CB
:100E0C0000F042B80A44914200F1FF3300D1704720
:100E1C0010B511F8014B914203F8014FF9D110BDF7
:100E2C0003460244934200D1704703F8011BF9E7D3
:100E3C0038B50D4B04461D68AB6B7BB91820FFF71A
:100E4C001FFB0A4A0A4BA863C0E90023094B012285
:100E5C0083600B2383810023C0E904230022AB6B46
:100E6C001C615A6138BD00BF080000200E33CDABA9
:100E7C0034126DE6ECDE0500034613F8012B002A54
:100E8C00FBD1181A013870472DE9F843DFF8BC8004
:100E9C000646D8F800001F460D46914600F058F85B
:100EAC00264B1C6834B9264C1C60264B13B11B68AE
:100EBC00C4F8883063681F2B07DDD8F8000000F0F9
:100ECC0049F84FF0FF30BDE8F8835EB3D4F88800E2
:100EDC0088B91D4B23B9D8F8000000F03AF8F0E7B8
:100EEC004FF48470FFF7CCFA0028F4D00023C0E94B
:100EFC004033C4F8880001226368022E40F8239026
:100F0C0002FA03F200EB8301D0F8003143EA02034A
:100F1C00C0F80031C1F8807002BFD0F804311A4318
:100F2C00C0F804216368D8F800005A1C02336260D0
:100F3C0044F8235000F00EF80020C4E7E40500202C
:100F4C0058050020000000008D040A086C000020E9
:100F5C0070477047704700001D000A085D000A08C2
:100F6C0085000A0889000A08000000006170700002
:100F7C0025592D256D2D25645425483A254D3A25A6
:100F8C0053257A0061736374696D6500000000007D
:100F9C000000000041070A0831070A0833070A0855
:100FAC000000000000000000FF070A0865080A089E
:100FBC003D080A0801050A082F080A0801080A0852
:100FCC0011080A085F080A0821080A08F9070A0824
:100FDC00000000000000000085090A08EF090A085B
:100FEC00CB090A0801050A089B090A08B7090A086F
:100FFC00A9090A08C5090A0887090A088D090A08F7
:10100C000000000000000000710A0A08BB0A0A0870
:10101C00930A0A08730A0A089B0A0A08A30A0A0810
:10102C00AB0A0A08B30A0A0800000000000000001E
:10103C00830B0A08790B0A086F0B0A08ED0A0A08D9
:10104C008D050A08630B0A08E10B0A08E90B0A086C
:10105C00570B0A084F0B0A08450B0A083B0B0A08EA
:10106C00F70A0A080000000000000000A10B0A08A3
:10107C00AB0B0A08B50B0A08BF0B0A08C90B0A0808
:10108C00D50B0A08E10B0A08E90B0A08F10B0A0850
:10109C00FD0B0A08050C0A080F0C0A08190C0A08A3
:1010AC000000000039010A08DD040A0899050A0845
:1010BC00A9050A08C5050A088D0B0A08690C0A0857
:0410CC00650D0A089C
:0410D000000000001C
:1010D40007000000900F0A080C0000200000000028
:1010E40000000000000000000000000000000000FC
:1010F40000000000000000000000000000000000EC
:1011040000000000000000000000000000000000DB
:1011140000000000000000000000000000000000CB
:1011240000000000000000000000000000000000BB
:10113400000000000000000000000000E90500209D
:10114400FFFFFFFF00000102030405060708090A68
:101154000B0C0D0E0F101112131415161718191A63
:081164001B1C1D1E1F202800AA
:04116C00785634126B
:04000005080A001CC9
:00000001FF
