:02000004080AE8
:1000000000000A08F81C0A080000060006000501A6
:080010000402FD0800000000DD
:04001800A01A0A0818
:10001C0009480A4908B5884205D0094A824202D0EB
:10002C00121A01F08DFC0748074A0021121A01F040
:10003C0095FC064808BD00BF00000020641C0A089F
:10004C006C0000206C00002001060020010600203E
:10005C0070B500F0B7FC0025054E064CA41BA40897
:10006C00A54200D170BD56F8043B98470135F7E71F
:10007C00341C0A08541C0A0800F022B808B500F019
:10008C002DF8BDE8084000F055BC00F035BB00F081
:10009C003BBB0078B0FA80F0400970470123037035
:1000AC0070470EB403B503AB53F8042B0021019336
:1000BC0000F0B6FB02B05DF804EB03B07047000033
:1000CC0008B500F081FD4FF4165100F063FDBDE85A
:1000DC000840014800F050B87800002073B50B20A0
:1000EC0000F0A7FF154C164E206000F06DFD226845
:1000FC001449FFF7D6FF00F079F9134C134D20602B
:10010C00134800F033F9306000F070F92368C01A1E
:10011C00286000F059FD0446306801F055F92A6852
:10012C00CDE9000120460B49FFF7BBFF4FF4FA70F5
:10013C0002B0BDE8704000F0BDBB00BF74000020F1
:10014C0070000020B41A0A08840000206C00002003
:10015C0078000020C31A0A0800220A21014800F086
:10016C0003B800BF7800002010B5024CC0E90112A2
:10017C00046010BD000080BF10B5044601218088CA
:10018C0000F046FF20890021BDE8104000F040BF80
:10019C002DE9F74F074600F039F9724DD7F8048076
:1001AC002B78824613F0010FBFF35B8F6E4C09D195
:1001BC002846FFF76EFF28B100F0E8F820602846CB
:1001CC00FFF76CFF1C231FFA88F803FB08F8236861
:1001DC0003EB08092B78BFF35B8FD90709D461486F
:1001EC00FFF757FF28B100F0D1F820605D48FFF70A
:1001FC0055FF2368B9F8042053F808300A201A83F5
:10020C0000F0ECF8D7F804802B78BFF35B8FDA079B
:10021C0009D45448FFF73DFF28B100F0B7F820602F
:10022C005048FFF73BFF1C231FFA88F803FB08F824
:10023C00236803EB08092B78BFF35B8FDB0709D42A
:10024C004848FFF726FF28B100F0A0F82060454889
:10025C00FFF724FF2368B9F8042053F80830DFF8BF
:10026C0004915A8300F0C2F88346D7F808802B78A3
:10027C00BFF35B8FD80709D44846FFF70AFF28B1B4
:10028C0000F084F820604846FFF708FF1C231FFA93
:10029C0088F803FB08F8236853F808301B690093AF
:1002AC002B78BFF35B8FD90709D44846FFF7F1FED3
:1002BC0028B100F06BF820604846FFF7EFFE23688A
:1002CC00009A43449B8813420ED100F08FF8A0EBA8
:1002DC000B06B6F5FA6FC8D30026504600F09EF810
:1002EC00304603B0BDE8F08F00F080F847F2471BB2
:1002FC00DFF870900190D7F808802B78BFF35B8FF4
:10030C00DA0709D44846FFF7C4FE28B100F03EF8DE
:10031C0020604846FFF7C2FE1C231FFA88F803FB37
:10032C0008F8236853F808301B6900932B78BFF347
:10033C005B8FDB0709D44846FFF7ABFE28B100F012
:10034C0025F820604846FFF7A9FE2368009A43442D
:10035C009B881342C1D000F049F8019BC61A5E4538
:10036C00C9D9B9E7880000208C00002010B50446DC
:10037C00FFF70EFF08B9206810BD01F033F90249F0
:10038C0001F088F9F8E700BF95438B3C08B5024BA8
:10039C001B681B68019308BDB001060808B5024B29
:1003AC001B685B68019308BDB001060808B5024BD9
:1003BC001B689B68019308BDB001060808B5024B89
:1003CC001B681B6B019308BDB001060808B5024BF6
:1003DC001B685B68019308BD9C01060808B5024BBD
:1003EC001B68DB68019308BD9C01060808B5024B2D
:1003FC001B681B69019308BD9C01060808B5024BDC
:10040C001B685B69019308BD9C01060808B5024B8B
:10041C001B689B6B019308BD9C01060808B5024B39
:10042C001B68DB6B019308BD9C01060808B5024BE9
:10043C001B685B6C019308BDD001060808B5024B24
:10044C001B689B6C019308BDD001060808B5024BD4
:10045C001B689B69019308BDC401060808B5024BD3
:10046C001B685B6A019308BDC401060808B5024B02
:10047C001B689B6A019308BDC401060808B5024BB2
:10048C001B68DB6A019308BDC401060808B5024B62
:10049C001B681B6B019308BDC401060808B5024B11
:1004AC001B685B6B019308BDC401060808B5024BC1
:1004BC001B689B6B019308BDC401060808B5024B71
:1004CC001B681B6C019308BDC401060808B5024BE0
:1004DC001B681B6E019308BDAC01060808B5024BE6
:1004EC001B685B6E019308BDAC01060808B5024B96
:1004FC001B689B6E019308BDAC01060808B5024B46
:10050C001B68DB6E019308BDAC01060808B5024BF5
:10051C001B681B6F019308BDAC01060808B5024BA4
:10052C001B685B6F019308BDAC01060808B5034B53
:10053C001B68D3F88030019308BD0000AC0106089D
:10054C0008B5024B1B68DB69019308BDB4010608B2
:10055C0008B5024B1B681B6A019308BDB401060861
:10056C0008B5024B1B681B68019308BDD80106082F
:10057C0008B5024B1B685B68019308BDD8010608DF
:10058C0008B5024B1B681B69019308BDD80106080E
:10059C0008B5024B1B685B69019308BDD8010608BE
:1005AC0008B5024B1B689B69019308BDD80106086E
:1005BC0008B5024B1B68DB69019308BDD80106081E
:1005CC0008B5024B1B681B6A019308BDD8010608CD
:1005DC0008B5024B1B689B6C019308BDC001060853
:1005EC0008B5024B1B685B68019308BDA4010608A3
:1005FC0008B5024B1B685B69019308BDA401060892
:10060C0008B5034B1B68D3F89030019308BD00006C
:10061C00A401060808B5034B1B68D3F89C30019362
:10062C0008BD0000A401060808B5024B1B685B68F6
:10063C00019308BDC801060808B5024B1B689B68EE
:10064C00019308BDC801060808B5024B1B68DB689E
:10065C00019308BDC801060808B5024B1B681B694D
:10066C00019308BDC801060808B5024B1B685B69FD
:10067C00019308BDC801060808B5024B1B689B69AD
:10068C00019308BDC801060808B5024B1B68DB695D
:10069C00019308BDC801060808B5024B1B681B6A0C
:1006AC00019308BDC801060808B5024B1B681B6BFB
:1006BC00019308BDC801060808B5024B1B685B6BAB
:1006CC00019308BDC801060808B5024B1B681B6CDA
:1006DC00019308BDC801060808B5024B1B685B6C8A
:1006EC00019308BDC801060808B5024B1B68DB6BFB
:1006FC00019308BDCC01060808B5024B1B681B68AA
:10070C00019308BDA001060808B5024B1B685B6885
:10071C00019308BDA001060808B5024B1B685B6A73
:10072C00019308BDA001060808B5024B1B685B6C61
:10073C00019308BDA001060870B5002604460D46BD
:10074C0040F8086FFFF772FE28462570FFF7F8FE99
:10075C002046666070BD000002220020044B1A6027
:10076C00044B054A1860988098719A60FFF738BF5F
:10077C009C000020900000200000FFFFF8B506460A
:10078C000D4600248F18BD420CD0336830469B6850
:10079C0015F8011B9847031E01DB1C44F3E7002CE2
:1007AC0008BF1C462046F8BD70B505460C460846E9
:1007BC0049B101F0FFF82B68024621462846BDE8F6
:1007CC007040DB68184770BD03689B68184738B5E4
:1007DC000D210546FFF7F8FF0A2104462846FFF7CE
:1007EC00F3FF204438BD0023012A98BF0A2230B5FC
:1007FC008BB00C468DF8243009A92546B4FBF2F4D5
:10080C0004FB1253DBB2092B94BF30333733DBB20A
:10081C00AA4201F8013DF0D9FFF7C6FF0BB030BD7D
:10082C002DE9F04186B000AF05460E46381D142167
:10083C0014463B60FFF770FF13280ED82846391D6D
:10084C00FFF7B2FF04461EB12846FFF7C0FF044471
:10085C0020461837BD46BDE8F08100F1080323F0AF
:10086C000703E846ADEB030D2246411C3B68684686
:10087C00FFF752FF69462846FFF796FF0446C54628
:10088C00E1E7002340681A461946FFF7EDBE000069
:10089C00014B024A1A607047A0000020FB1A0A089C
:1008AC00024B1A68024B1A60704700BF0000002010
:1008BC00A40000200021FFF79BBE00000022014B8A
:1008CC009A607047A8000020014B1860704700BF69
:1008DC000400002008B5134B43B100F075F9036810
:1008EC001B699847002801DDAFF300800E4B43B124
:1008FC0000F01AFA03681B699847002801DDAFF372
:10090C0000800A4B0BB1AFF30080094B43B100F0F0
:10091C0095F903681B699847002801DDAFF3008047
:10092C0008BD00BF00000000000000000000000037
:10093C000000000008B5FFF7CDFFFFF75FFD014B8E
:10094C00186008BD340500200548064A08B5121A7F
:10095C00054900F0F5FF054B054A1A6008BD00BFBC
:10096C000040024004400240601C0A080040024063
:10097C001E1C279A002307B51A466FF077010093C7
:10098C00FFF748FE03B05DF804FB000007B5438891
:10099C000A2B08D0502B0BD1094B1B684BB103B061
:1009AC005DF804EB1847FFF7E5FF03B05DF804FBB7
:1009BC0000231A466FF077010093FFF72BFEF4E744
:1009CC00BC000020002110B51148FFF7ADFE114B03
:1009DC001A68114B9A420CBF012200220F4B1A705D
:1009EC0001D0FFF7B1FFFFF7F1FC044600F0BEFFAA
:1009FC000B4B13B12046AFF3008000210848FFF7E2
:100A0C0073FEBDE8104000210648FFF7F9BD00BF9A
:100A1C00D5080A08004002401E1C279AB800002086
:100A2C000000000099090A08704710B50446182107
:100A3C0000F062FB204610BDF8B50E46002400F114
:100A4C000807051D17F8011D0A223046FFF7CBFEDB
:100A5C00AF42044401D12046F8BD002CF2D02E2127
:100A6C003046FFF7B1FE0444ECE7000010B5044635
:100A7C00044B1122002140F8043B00F06FFF20468C
:100A8C0010BD00BF241B0A080346074A10B543F8E3
:100A9C00042B01F1100251F8044B914243F8044B22
:100AAC00F9D10A781A7010BD241B0A08024AC0E951
:100ABC000021042202757047241B0A0810B59DF80A
:100ACC00084044EA0324042344EA024444EA01644F
:100ADC004460037510BD000037B5044D05609DF8EA
:100AEC0018500095FFF7EAFF03B030BD241B0A082D
:100AFC00417470477047704708B50021007CFFF7C0
:100B0C004FFD40EAE07008BD08B50121007CFFF7FD
:100B1C0047FD40EAE07008BD08B5007CFFF738FDE2
:100B2C0020EAE07008BD08B5007CFFF729FD20EA3B
:100B3C00E07008BD38B50446007C0D46FFF728FD73
:100B4C00002801DC607C28B12946207CFFF730FDB1
:100B5C0020EAE07038BD007CFFF732BD10B50446CA
:100B6C00142100F0C9FA204610BD704710B54FF49F
:100B7C007A73044608460021C4E90113044B20741F
:100B8C002360012311466374FFF7EAFC204610BD75
:100B9C00381B0A080022007CFFF7EABC10B504469B
:100BAC001422002100F0DAFE054B20466360054B51
:100BBC00E36040F2011323818123238210BD00BF27
:100BCC00F0000020F101002030B50E4D87B001A8D7
:100BDC00FFF7E4FF2978BFF35B8F11F001040ED10E
:100BEC002846FFF756FA50B1214601AA0648FFF7EE
:100BFC00BDFF2846FFF752FA044800F09BFE02485E
:100C0C0007B030BDC0000020C8000020010B0A084E
:100C1C0010B504461422002100F0A0FE054B20461E
:100C2C006360054BE36040F201132381812323822F
:100C3C0010BD00BF720200207303002010B50E4CD3
:100C4C0086B001A8FFF7E4FF2378BFF35B8FDB07C7
:100C5C000ED42046FFF71DFA50B1012101AA074816
:100C6C00FFF784FF2046FFF719FA054800F062FEF3
:100C7C00024806B010BD00BFC4000020DC000020FC
:100C8C00770B0A08704741747047704708B5007CB1
:100C9C00FFF714FC20EAE07008BD08B5007CFFF7F4
:100CAC00E5FB20EAE07008BD08B5007CFFF7EEFB21
:100CBC0040EAE07008BD08B5007CFFF7DFFB40EAB6
:100CCC00E07008BD007CFFF7E9BB70B5467C0446BC
:100CDC000D462EB12946207CBDE87040FFF7BEBB07
:100CEC00007CFFF7EBFB0028F4DC304670BD10B540
:100CFC000446142100F000FA204610BD4FF0000C01
:100D0C0010B50446084611464FF47A72C4E901C284
:100D1C00044A20742260012262741A46FFF796FB83
:100D2C00204610BD681B0A0838B50C4D2978BFF356
:100D3C005B8F11F001040FD12846FFF7AAF958B1C7
:100D4C002146074B074A0848FFF7D8FF2846FFF70C
:100D5C00A5F9064800F0EEFD034838BDF403002069
:100D6C007C040020F803002000050020970C0A08E2
:100D7C007047F8B5064615460C468F18BC4206D08F
:100D8C00336830469B6814F8011B9847F6E72846F1
:100D9C00F8BD0022007CFFF799BB0021007CFFF717
:100DAC009DBB0021007CFFF7A1BB0021007CFFF75D
:100DBC00A5BB0021007CFFF7A9BB10B5044614218C
:100DCC0000F09AF9204610BD10B54FF47A73044622
:100DDC0008460021C4E90113034B1146236020741B
:100DEC00FFF7A4FB204610BD981B0A0800224068A0
:100DFC001146FFF731BCF0B5154689B011220E46ED
:100E0C000446002103A800F0A9FD284600F0D2FDFD
:100E1C00002781B273682846009703AAFFF7D8FB16
:100E2C0030B139462046FFF741FE204609B0F0BDEF
:100E3C00204603A9FFF728FEF7E700224068114679
:100E4C00FFF72ABC002240681146FFF735BC002290
:100E5C004068FFF729BC0022406881F00101FFF7D0
:100E6C0013BC002340681A461946FFF705BC002244
:100E7C0040681146FFF7E0BB002202214068FFF7F3
:100E8C00E3BB002340681A46FFF7CEBB0422024B9B
:100E9C005A60024A1A60704714050020C01B0A08E9
:100EAC00002340681A46FFF7BFBB002202214068AE
:100EBC00FFF7CABB002240681146FFF7BDBB0022FA
:100ECC0040681146FFF7C8BB002340681A46194614
:100EDC00FFF7CABB002340681A461946FFF7CCBB84
:100EEC0000214068FFF7F0BB00214068FFF7F4BB1E
:100EFC000022406881F00101FFF7C6BB0022406868
:100F0C00FFF7D2BB002240681146FFF7D5BB002289
:100F1C0040681146FFF7C0BB70B515468EB004464D
:100F2C0008A8FFF7A3FD1122002103A800F016FD6D
:100F3C000026284600F03EFD0A4B009681B25B6805
:100F4C00284603AAFFF744FB30B131462046FFF791
:100F5C00ADFD20460EB070BD204603A9FFF794FDF1
:100F6C00F7E700BF14050020024B034A1A60002269
:100F7C005A6070471C050020FC1B0A08024B98683D
:100F8C0008B1FFF75BBA704728050020172870B529
:100F9C00044601D9002070BDA0F10D03022B0BD922
:100FAC00012824D800F084F80021007CFFF7B6FA61
:100FBC0080F00100C0B2EEE7124E3178BFF35B8FC8
:100FCC0011F001050DD13046FFF763F848B1294601
:100FDC000D48FFF7B1FB3046FFF760F80B4800F007
:100FEC00A9FC094B1878FFF7B3FA0028D2D1123CB0
:100FFC00012C05D8FFF798FE007CFFF757FAD7E7CE
:10100C000120C8E72405002028050020890F0A08C4
:10101C00172838B504460D460AD8FF2908D0FFF723
:10102C00B5FF28B129462046BDE83840FFF7BEB9C8
:10103C0038BD10B5044609289CBF0A34A4B220461A
:10104C00FFF7A4FF50B103212046FFF7A7F90328AF
:10105C0004D12046BDE81040FFF7B0B9002010BD08
:10106C00002307B51A46194600930348FFF734FDD1
:10107C0003B05DF804FB00BF38050020704700008A
:10108C00002370B5202543801423084E04460380AA
:10109C00314685600561284600F030F831466060C5
:1010AC00284600F02BF8E060204670BD301C0A0882
:1010BC0030B50E4D87B02978BFF35B8F11F001046A
:1010CC0011D12846FEF7E5FF68B101A8FFF7D8FF5C
:1010DC00214601AA0648FFF777FE2846FEF7DEFFF9
:1010EC00044800F027FC024807B030BD5005002032
:1010FC005405002089100A08FEF7C9BFFEF7C5BFCA
:10110C0081F0004102E000BF83F0004330B54FEAAC
:10111C0041044FEA430594EA050F08BF90EA020F19
:10112C001FBF54EA000C55EA020C7FEA645C7FEAAC
:10113C00655C00F0E2804FEA5454D4EB5555B8BFCF
:10114C006D420CDD2C4480EA020281EA030382EA40
:10115C00000083EA010180EA020281EA0303362DD2
:10116C0088BF30BD11F0004F4FEA01314FF4801CA5
:10117C004CEA113102D0404261EB410113F0004FB7
:10118C004FEA03334CEA133302D0524263EB43036E
:10119C0094EA050F00F0A780A4F10104D5F1200E0C
:1011AC000DDB02FA0EFC22FA05F2801841F1000167
:1011BC0003FA0EF2801843FA05F359410EE0A5F13B
:1011CC0020050EF1200E012A03FA0EFC28BF4CF06C
:1011DC00020C43FA05F3C01851EBE37101F0004522
:1011EC0007D54FF0000EDCF1000C7EEB00006EEB2F
:1011FC000101B1F5801F1BD3B1F5001F0CD34908B9
:10120C005FEA30004FEA3C0C04F101044FEA44520F
:10121C0012F5800F80F09A80BCF1004F08BF5FEA96
:10122C00500C50F1000041EB045141EA050130BD76
:10123C005FEA4C0C404141EB0101013C28BFB1F588
:10124C00801FE9D291F0000F04BF01460020B1FAD3
:10125C0081F308BF2033A3F10B03B3F120020CDAA6
:10126C000C3208DD02F1140CC2F10C0201FA0CF084
:10127C0021FA02F10CE002F11402D8BFC2F1200CE9
:10128C0001FA02F120FA0CFCDCBF41EA0C0190409F
:10129C00E41AA2BF01EB0451294330BD6FEA0404E8
:1012AC001F3C1CDA0C340EDC04F11404C4F12002D3
:1012BC0020FA04F001FA02F340EA030021FA04F3E5
:1012CC0045EA030130BDC4F10C04C4F1200220FA3C
:1012DC0002F001FA04F340EA0300294630BD21FA7A
:1012EC0004F0294630BD94F0000F83F4801306BF40
:1012FC0081F480110134013D4EE77FEA645C18BF34
:10130C007FEA655C29D094EA050F08BF90EA020FCA
:10131C0005D054EA000C04BF1946104630BD91EAC2
:10132C00030F1EBF0021002030BD5FEA545C05D1C5
:10133C004000494128BF41F0004130BD14F5800404
:10134C003CBF01F5801130BD01F0004545F0FE4178
:10135C0041F470014FF0000030BD7FEA645C1ABFAD
:10136C00194610467FEA655C1CBF0B46024650EAE4
:10137C00013406BF52EA033591EA030F41F4002110
:10138C0030BD00BF90F0000F04BF0021704730B596
:10139C004FF4806404F132044FF000054FF000016B
:1013AC0050E700BF90F0000F04BF0021704730B52C
:1013BC004FF4806404F1320410F0004548BF404201
:1013CC004FF000013EE700BF42004FEAE2014FEA56
:1013DC0031014FEA02701FBF12F07F4393F07F4F31
:1013EC0081F06051704732F07F4208BF704793F034
:1013FC007F4F04BF41F40021704730B54FF4607447
:10140C0001F0004521F000411CE700BF50EA010249
:10141C0008BF704730B54FF000050AE050EA0102F2
:10142C0008BF704730B511F0004502D5404261EB62
:10143C0041014FF4806404F132045FEA915C3FF4A3
:10144C00D8AE4FF003025FEADC0C18BF03325FEA40
:10145C00DC0C18BF033202EBDC02C2F1200300FAF1
:10146C0003FC20FA02F001FA03FE40EA0E0021FA16
:10147C0002F11444BDE600BF80F0004002E000BF62
:10148C0081F0004142001FBF5FEA410392EA030F63
:10149C007FEA226C7FEA236C6AD04FEA1262D2EBAD
:1014AC001363C1BFD218414048404140B8BF5B42B2
:1014BC00192B88BF704710F0004F40F4000020F04B
:1014CC007F4018BF404211F0004F41F4000121F061
:1014DC007F4118BF494292EA030F3FD0A2F10102AB
:1014EC0041FA03FC10EB0C00C3F1200301FA03F1E9
:1014FC0000F0004302D5494260EB4000B0F5000F0C
:10150C0013D3B0F1807F06D340084FEA310102F1CA
:10151C000102FE2A51D2B1F1004F40EBC25008BF7C
:10152C0020F0010040EA03007047490040EB000046
:10153C00013A28BFB0F5000FEDD2B0FA80FCACF147
:10154C00080CB2EB0C0200FA0CF0AABF00EBC25074
:10155C0052421843BCBFD0401843704792F0000F62
:10156C0081F4000106BF80F400000132013BB5E7B5
:10157C004FEA41037FEA226C18BF7FEA236C21D02B
:10158C0092EA030F04D092F0000F08BF0846704790
:10159C0090EA010F1CBF0020704712F07F4F04D15E
:1015AC00400028BF40F00040704712F100723CBF71
:1015BC0000F50000704700F0004343F0FE4040F49B
:1015CC00000070477FEA226216BF08467FEA236359
:1015DC000146420206BF5FEA412390EA010F40F444
:1015EC00800070474FF0000304E000BF10F0004390
:1015FC0048BF40425FEA000C08BF704743F0964377
:10160C0001464FF000001CE050EA010208BF704791
:10161C004FF000030AE000BF50EA010208BF704718
:10162C0011F0004302D5404261EB41015FEA010C2D
:10163C0002BF84460146002043F0B64308BFA3F125
:10164C008053A3F50003BCFA8CF2083AA3EBC25307
:10165C0010DB01FA02FC634400FA02FCC2F1200226
:10166C00BCF1004F20FA02F243EB020008BF20F05D
:10167C000100704702F1200201FA02FCC2F12002C3
:10168C0050EA4C0021FA02F243EB020008BF20EAB8
:10169C00DC7070474FF0FF0C1CEAD0521EBF1CEAE6
:1016AC00D15392EA0C0F93EA0C0F6FD01A4480EAD4
:1016BC00010C400218BF5FEA41211ED04FF00063BD
:1016CC0043EA501043EA5111A0FB01310CF00040E9
:1016DC00B1F5000F3EBF490041EAD3715B0040EA0F
:1016EC00010062F17F02FD2A1DD8B3F1004F40EBDF
:1016FC00C25008BF20F00100704790F0000F0CF0B2
:10170C00004C08BF49024CEA502040EA51207F3A75
:10171C00C2BFD2F1FF0340EAC250704740F4000050
:10172C004FF00003013A5DDC12F1190FDCBF00F041
:10173C0000407047C2F10002410021FA02F1C2F1EF
:10174C00200200FA02FC5FEA310040F1000053EA8B
:10175C004C0308BF20EADC70704792F0000F00F0D9
:10176C00004C02BF400010F4000F013AF9D040EADF
:10177C000C0093F0000F01F0004C02BF490011F473
:10178C00000F013BF9D041EA0C018FE70CEAD15371
:10179C0092EA0C0F18BF93EA0C0F0AD030F0004CF1
:1017AC0018BF31F0004CD8D180EA010000F00040A5
:1017BC00704790F0000F17BF90F0004F084691F063
:1017CC00000F91F0004F14D092EA0C0F01D142029D
:1017DC000FD193EA0C0F03D14B0218BF084608D166
:1017EC0080EA010000F0004040F0FE4040F40000B0
:1017FC00704740F0FE4040F4400070474FF0FF0C43
:10180C001CEAD0521EBF1CEAD15392EA0C0F93EA89
:10181C000C0F69D0A2EB030280EA010C49024FEADB
:10182C00402037D04FF0805343EA111143EA101394
:10183C000CF000408B4238BF5B0042F17D024FF44C
:10184C00000C8B4224BF5B1A40EA0C00B3EB510F27
:10185C0024BFA3EB510340EA5C00B3EB910F24BF10
:10186C00A3EB910340EA9C00B3EBD10F24BFA3EB95
:10187C00D10340EADC001B0118BF5FEA1C1CE0D15D
:10188C00FD2A3FF650AF8B4240EBC25008BF20F010
:10189C00010070470CF0004C4CEA50207F32C2BF64
:1018AC00D2F1FF0340EAC250704740F400004FF001
:1018BC000003013A37E792F0000F00F0004C02BF32
:1018CC00400010F4000F013AF9D040EA0C0093F0FC
:1018DC00000F01F0004C02BF490011F4000F013B56
:1018EC00F9D041EA0C0195E70CEAD15392EA0C0FBE
:1018FC0008D142027FF47DAF93EA0C0F7FF470AFF6
:10190C00084676E793EA0C0F04D14B023FF44CAF38
:10191C0008466EE730F0004C18BF31F0004CCAD1CD
:10192C0030F000427FF45CAF31F000437FF43CAF09
:10193C005FE700BF002301461A46184600F042B884
:10194C000A44914200F1FF3300D1704710B511F8F1
:10195C00014B914203F8014FF9D110BD03460244EB
:10196C00934200D1704703F8011BF9E738B50D4BD2
:10197C0004461D68AB6B7BB91820FEF7BDFE0A4A06
:10198C000A4BA863C0E90023094B012283600B2397
:10199C0083810023C0E904230022AB6B1C615A61D4
:1019AC0038BD00BF040000200E33CDAB34126DE601
:1019BC00ECDE0500034613F8012B002AFBD1181AA4
:1019CC00013870472DE9F843DFF8BC800646D8F89B
:1019DC0000001F460D46914600F058F8264B1C6837
:1019EC0034B9264C1C60264B13B11B68C4F88830E4
:1019FC0063681F2B07DDD8F8000000F049F84FF0A2
:101A0C00FF30BDE8F8835EB3D4F8880088B91D4B6D
:101A1C0023B9D8F8000000F03AF8F0E74FF48470DE
:101A2C00FEF76AFE0028F4D00023C0E94033C4F866
:101A3C00880001226368022E40F8239002FA03F218
:101A4C0000EB8301D0F8003143EA0203C0F8003107
:101A5C00C1F8807002BFD0F804311A43C0F80421D9
:101A6C006368D8F800005A1C0233626044F82350B3
:101A7C0000F00EF80020C4E7F405002068050020F3
:101A8C000000000005070A08680000207047704736
:101A9C00704700001D000A085D000A0885000A084E
:101AAC0089000A08000000004144432076616C75EF
:101ABC00653A2025640A0052616E67652066696E7E
:101ACC0064696E67206475726174696F6E3A202563
:101ADC006C75207C2044697374616E636520696E3B
:101AEC0020696E636865733A20252E32660A0061A0
:101AFC0070700025592D256D2D25645425483A25E7
:101B0C004D3A2553257A0061736374696D65000045
:101B1C000000000000000000450A0A08350A0A0807
:101B2C00370A0A080000000000000000030B0A0836
:101B3C00690B0A08410B0A0889070A08330B0A08C3
:101B4C00050B0A08150B0A08630B0A08250B0A0873
:101B5C00FD0A0A080000000000000000910C0A08B1
:101B6C00FB0C0A08D70C0A0889070A08A70C0A08F4
:101B7C00C30C0A08B50C0A08D10C0A08930C0A0805
:101B8C00990C0A0800000000000000007D0D0A08F6
:101B9C00C70D0A089F0D0A087F0D0A08A70D0A0831
:101BAC00AF0D0A08B70D0A08BF0D0A0800000000A7
:101BBC00000000008F0E0A08850E0A087B0E0A082A
:101BCC00F90D0A088F080A086F0E0A08ED0E0A08AC
:101BDC00F50E0A08630E0A085B0E0A08510E0A0875
:101BEC00470E0A08030E0A0800000000000000005F
:101BFC00AD0E0A08B70E0A08C10E0A08CB0E0A0869
:101C0C00D50E0A08E10E0A08ED0E0A08F50E0A08B0
:101C1C00FD0E0A08090F0A08110F0A081B0F0A0803
:101C2C00250F0A080000000065010A0865070A086C
:101C3C009D080A08AD080A08C9080A08990E0A087E
:101C4C00750F0A086D100A08000000000000000063
:041C5C000000000084
:041C60000000000080
:101C6400131B0A0808000020000000000000000008
:101C74000000000000000000000000000000000060
:101C84000000000000000000000000000000000050
:101C94000000000000000000000000000000000040
:101CA4000000000000000000000000000000000030
:101CB4000000000000000000000000000000000020
:0C1CC4000000000000000000F9050020F6
:101CD000FFFFFFFF00000102030405060708090AD1
:101CE0000B0C0D0E0F101112131415161718191ACC
:081CF0001B1C1D1E1F20280013
:041CF80078563412D4
:040000052000008453
:00000001FF
