:02000002B0004C
:1040000000400B00AC520B00000006000C00050243
:084010000401810C0000000016
:04401800C84F0B0082
:10401C0009480A49884208B505D0094A824202D0AB
:10402C00121A00F019FF0748074A0021121A00F073
:10403C0021FF014808BD00BF38E6032014520B00D5
:10404C00A8E60320A8E60320EDE7032070B5074E91
:10405C00074C00F071FBA41BA4080025AC4200D156
:10406C0070BD56F8043B98470135F7E7E4510B0057
:10407C0008520B0000F014B808B500F035F8BDE894
:10408C00084000F011BB00F0FFB900F005BA007851
:10409C00B0FA80F0400970470123037070470000AC
:1040AC0038B50F4D0121288800F028FE0D4B012159
:1040BC00188800F023FE08240121288800F02FFE28
:1040CC00C82000F0C5FA2888002100F028FEC8207E
:1040DC0000F0BEFA013CEFD1BDE8384000F0C4B9A5
:1040EC0038E60320B4E6032038B50D4D0D4C288876
:1040FC00012100F014FE2088012100F010FE322076
:10410C0000F0A6FA2888002100F009FE2088002182
:10411C0000F005FEBDE838404FF47A7000F098BA14
:10412C0038E60320B4E6032008B50120002100F096
:10413C001FF9064B0022C3E90022A2F580329A60D7
:10414C00BDE80840032000F003B900BFA8E6032037
:10415C0008B5024B1B689B68019308BD68020300FD
:10416C0008B5024B1B68DB68019308BD68020300AD
:10417C0008B5024B1B689B68019308BD2C02030019
:10418C0008B5024B1B68DB68019308BD2C020300C9
:10419C0008B5024B1B681B69019308BD2C02030078
:1041AC0008B5024B1B685B68019308BD180203003D
:1041BC0008B5024B1B685B69019308BD180203002C
:1041CC0008B5024B1B685B6C019308BD48020300E9
:1041DC0008B5024B1B685B69019308BD64020300C0
:1041EC0008B5024B1B68DB68019308BD3C02030059
:1041FC0008B5024B1B681B69019308BD3C02030008
:10420C0008B5024B1B685B69019308BD3C020300B7
:10421C0008B5024B1B689B69019308BD3C02030067
:10422C0008B5024B1B68DB69019308BD3C02030017
:10423C0008B5024B1B681B6A019308BD3C020300C6
:10424C0008B5024B1B689B6A019308BD3C02030036
:10425C0008B5024B1B681B6C019308BD3C020300A4
:10426C0008B5024B1B681B6A019308BD28020300AA
:10427C0008B5024B1B685B6A019308BD280203005A
:10428C0008B5024B1B689B6A019308BD280203000A
:10429C0008B5024B1B68DB6A019308BD28020300BA
:1042AC0008B5024B1B681B6B019308BD2802030069
:1042BC0008B5024B1B685B6B019308BD2802030019
:1042CC0008B5024B1B681B6C019308BD2802030048
:1042DC0008B5024B1B68DB69019308BD3002030073
:1042EC0008B5024B1B681B6A019308BD3002030022
:1042FC0008B5024B1B681B68019308BD4C020300F8
:10430C0008B5024B1B681B69019308BD4C020300E6
:10431C0008B5024B1B685B69019308BD4C02030096
:10432C0008B5024B1B689B69019308BD4C02030046
:10433C0008B5024B1B68DB69019308BD4C020300F6
:10434C0008B5024B1B681B6A019308BD4C020300A5
:10435C0008B5024B1B685B68019308BD2002030083
:10436C0008B5024B1B685B69019308BD2002030072
:10437C0008B5024B1B68DB6A019308BD20020300E1
:10438C0008B5034B1B68D3F88830019308BD0000B7
:10439C002002030008B5034B1B68D3F8943001933B
:1043AC0008BD00002002030008B5024B1B685B68C7
:1043BC00019308BD4002030008B5024B1B689B68C3
:1043CC00019308BD4002030008B5024B1B68DB6873
:1043DC00019308BD4002030008B5024B1B681B6922
:1043EC00019308BD4002030008B5024B1B685B69D2
:1043FC00019308BD4002030008B5024B1B689B6982
:10440C00019308BD4002030008B5024B1B68DB6931
:10441C00019308BD4002030008B5024B1B681B6AE0
:10442C00019308BD4002030008B5024B1B681B6BCF
:10443C00019308BD4002030008B5024B1B685B6B7F
:10444C00019308BD4002030008B5024B1B681B6CAE
:10445C00019308BD4002030008B5024B1B685B6C5E
:10446C00019308BD4002030008B5024B1B68DB68D2
:10447C00019308BD4402030008B5024B1B68DB6BBB
:10448C00019308BD4402030008B5024B1B681B686E
:10449C00019308BD1C02030008B5024B1B685B6846
:1044AC00019308BD1C02030008B5024B1B681B6C72
:1044BC00019308BD1C02030008B5024B1B685B6C22
:1044CC00019308BD1C020300002240681146FFF74F
:1044DC00A3BF002240681146FFF7AEBF4068002220
:1044EC00FFF7A2BF4068002281F00101FFF78CBFEB
:1044FC00002340681A461946FFF77EBF0023406828
:10450C001A461946FFF770BF002240681146FFF7A4
:10451C0063BF002240681146FFF74EBF406800227F
:10452C000221FFF751BF002340681A46FFF73CBF3A
:10453C00024B03225A60024A1A607047B8E6032005
:10454C00E44F0B0010B5044608462170FFF7C0FE7F
:10455C0000236360204610BD054B02221A60054BF8
:10456C00054A9A600020C3E90000FFF7F1BE00BFC6
:10457C00CCE60320C0E603200000FFFF0248002326
:10458C000360FFF71DBE00BFD0E60320F8B506465A
:10459C000D468F180024BD420CD0336815F8011B52
:1045AC009B6830469847031E01DB1C44F3E7002C44
:1045BC0008BF1C462046F8BD13B50446084659B141
:1045CC00019100F08DFC23680199DB6802462046BE
:1045DC0002B0BDE81040184702B010BD03689B68DC
:1045EC00184730B58BB00023012A8DF8243098BFC2
:1045FC000A2209AC0D46B1FBF2F101FB125303F098
:10460C00FF03092B94BF30333733DBB2AA4204F8D3
:10461C00013DEFD92146FFF7CFFF0BB030BD002392
:10462C0040681A461946FFF7DFBE0000014B024AEC
:10463C001A607047D4E6032018500B00024B1A681E
:10464C00024B1A60704700BF3CE60320D8E60320FB
:10465C000021FFF785BE0000014B00229A607047D5
:10466C00DCE60320014B1860704700BF40E60320D6
:10467C0008B50B4B43B100F063F903681B6998470D
:10468C00002801DDAFF30080064B43B100F07CFB4A
:10469C0003681B699847002801DDAFF3008008BD53
:1046AC00000000000000000008B5FFF7E1FFFFF775
:1046BC007FFD014B186008BD40E703200548064A02
:1046CC00064908B5121A00F0C7FB054B054A1A60DB
:1046DC0008BD00BF00F4032004F4032010520B00AB
:1046EC0000F403201E1C279A07B5002300931A46DA
:1046FC006FF07701FFF74EFE03B05DF804FB00008E
:10470C0007B543880A2B08D0502B0BD1094B1B68DB
:10471C004BB103B05DF804EB1847FFF7E5FF03B0AE
:10472C005DF804FB002300931A466FF07701FFF746
:10473C0031FEF4E7F0E6032010B512480021FFF734
:10474C00BBFE114B1A68114B9A42114B0CBF012244
:10475C0000221A7001D0FFF7B1FFFFF721FD0446CC
:10476C0000F090FB0B4B13B12046AFF300800021FF
:10477C000848FFF781FEBDE8104007480021FFF70D
:10478C00FFBD00BF71460B0000F403201E1C279ACE
:10479C00ECE60320000000000D470B00704710B53D
:1047AC0018210446FFF771FC204610BDF0B5037DBF
:1047BC00062B8DB00E4600F104074FF0000412D00A
:1047CC0000F1080515F8011D0A223046FFF709FF14
:1047DC00AF42044419D0002CF4D02E213046FFF700
:1047EC00FDFE0444EEE72F236A4639460A208DF875
:1047FC000040FFF7EDFC684600F072FB33680246A0
:10480C00DB68694630469847044620460DB0F0BD3B
:10481C0010B5054B0446112240F8043B002100F072
:10482C0029FB204610BD00BF40500B000346074A31
:10483C0010B543F8042B01F1100251F8044B43F866
:10484C00044B9142F9D10A781A7010BD40500B00FC
:10485C0010B59DF8084044EA032343EA024242EAB9
:10486C00016104234160037510BD000007B5064BC0
:10487C000360CB7800938B784A780978FFF7E8FFD0
:10488C0003B05DF804FB00BF40500B00417470474F
:10489C007047704708B50021007CFFF741FD40EAE6
:1048AC00E07008BD08B50121007CFFF739FD40EA36
:1048BC00E07008BD08B5007CFFF72AFD20EAE07027
:1048CC0008BD08B5007CFFF71BFD20EAE07008BDB1
:1048DC0013B50446007C0191FFF71AFD00280199DD
:1048EC0001DC607C20B1207CFFF722FD20EAE07027
:1048FC0002B010BD007CFFF723BD10B51421044697
:10490C00FFF7C3FB204610BD10B54FF47A73044675
:10491C0008460021C4E90113044B236001232074D1
:10492C0063741146FFF7E4FC204610BD54500B0095
:10493C0010B514220446002100F09CFA204610BD4C
:10494C0010B50F4C88B003A8FFF7F2FF2178BFF326
:10495C005B8F11F001010FD120460191FFF797FBFE
:10496C00019948B103AA0748FFF7CEFF2046FFF78D
:10497C0093FB054800F06AFA024808B010BD00BF6E
:10498C00F4E60320F8E603209D480B0070474174C1
:10499C00704708B5007CFFF753FC20EAE07008BDB7
:1049AC0008B5007CFFF724FC20EAE07008BD08B5D0
:1049BC00007CFFF72DFC40EAE07008BD08B5007CD8
:1049CC00FFF71EFC40EAE07008BD007CFFF728BC36
:1049DC0037B5457C04462DB1207C03B0BDE8304092
:1049EC00FFF7FEBB007C0191FFF72AFC0028019920
:1049FC00F2DC284603B030BD10B514210446FFF795
:104A0C0044FB204610BD000010B54FF47A730446E9
:104A1C00084611460022C4E90123044B23600123FC
:104A2C0020746374FFF714FC204610BD84500B00F7
:104A3C007047F8B5064615460C468F18BC4206D092
:104A4C00336814F8011B9B6830469847F6E72846F4
:104A5C00F8BD007C0022FFF703BC007C0021FFF7AF
:104A6C0007BC007C0021FFF70BBC007C0021FFF78A
:104A7C000FBC007C0021FFF713BC10B514210446B9
:104A8C00FFF703FB204610BD10B54FF47A730446B4
:104A9C0008460021C4E90113034B2360207411461E
:104AAC00FFF70EFC204610BDB4500B0000224068EE
:104ABC001146FFF791BC002240681146FFF7ACBCD1
:104ACC00002240681146FFF7B7BC40680022FFF790
:104ADC00ABBC4068002281F00101FFF795BC0023BC
:104AEC0040681A461946FFF787BC002240681146F9
:104AFC00FFF762BC406800220221FFF765BC00236F
:104B0C0040681A46FFF750BC024B04225A60024A16
:104B1C001A6070470CE70320DC500B000023406840
:104B2C001A46FFF741BC406800220221FFF74CBC3B
:104B3C00002240681146FFF73FBC00224068114636
:104B4C00FFF74ABC002340681A461946FFF74CBCD5
:104B5C00002340681A461946FFF74EBC40680021F6
:104B6C00FFF772BC40680021FFF776BC406800225A
:104B7C0081F00101FFF748BC40680022FFF754BCEC
:104B8C00002240681146FFF757BC002240681146CE
:104B9C00FFF742BC2DE9F04395B014460D4607468D
:104BAC00FFF736FE00211C220DA8009100F062F9DF
:104BBC0040230C9320466B460CAA0021FFF7D0FA39
:104BCC00044600284BD1024601216868FFF704FC1B
:104BDC000221804622466868FFF7FEFB009E814654
:104BEC002146002E3BD0002939D17368022B03D00B
:104BFC000A2B11D0F669F4E7B8F1000FFAD07169FD
:104C0C0006A8043107ADFFF731FE0FCD3C1D0FC4D4
:104C1C002B6823704146EDE7B9F1000FEAD07469B7
:104C2C00102201A800F026F906238DF8143001ADEE
:104C3C0004F108031834186859682A4603C208336B
:104C4C00A3421546F7D101A906A807ADFFF7EEFD63
:104C5C000FCD3C1D0FC42B6823704946CAE7009842
:104C6C00FFF776FA384615B0BDE8F083024B034ADD
:104C7C001A6000225A60704714E7032018510B0089
:104C8C00232813B502D9002002B010BDA0F10B03EC
:104C9C00022B1AD8174C2178BFF35B8F11F001014E
:104CAC000BD120460191FFF7F2F9019928B1124876
:104CBC00FFF748FC2046FFF7EFF90F4B1878FFF78A
:104CCC000FFB0028DFD10120DEE7012809D800F016
:104CDC0097F80021007CFFF7EBFA80F00100C0B2DE
:104CEC00D2E709380128EED800F04EF8007CFFF727
:104CFC009FFAF2E71CE7032020E70320232838B5AE
:104D0C0004460D460AD8FF2908D0FFF7B9FF28B191
:104D1C0029462046BDE83840FFF72ABA38BD38B5D9
:104D2C0004460D46FFF72CFAFF2810D0062804D8AD
:104D3C004D2323FA00F0C30709D42046FFF7A0FF48
:104D4C0028B129462046BDE83840FFF721BA38BDC6
:104D5C007047000038B5044614252A46002100F09F
:104D6C0089F825804025074925812846258200F0B1
:104D7C006BF804496060284600F066F8E060204655
:104D8C0038BD00BF4C510B0030B50E4D2978BFF328
:104D9C005B8F11F0010487B011D12846FFF777F92A
:104DAC0068B101A8FFF7D6FF01AA21460648FFF714
:104DBC002BFE2846FFF770F9044800F047F802482C
:104DCC0007B030BD28E703202CE703205D4D0B0016
:104DDC007047000038B52025142304460360856015
:104DEC0005610649284600F02FF804496060284602
:104DFC0000F02AF8E060204638BD00BF4C510B0093
:104E0C0030B50E4D2978BFF35B8F11F0010487B0DC
:104E1C0011D12846FFF73BF968B101A8FFF7DAFF7B
:104E2C0001AA21460648FFF72FFE2846FFF734F962
:104E3C00044800F00BF8024807B030BD44E70320EB
:104E4C0048E70320DD4D0B00FFF71DB90023014699
:104E5C001A46184600F04CB80A44914200F1FF3350
:104E6C0000D1704710B511F8014B03F8014F914276
:104E7C00F9D110BD02440346934200D1704703F8A8
:104E8C00011BF9E738B5104B1D68AB6B0446B3B981
:104E9C001820FFF7F9FA0246A86320B90B4B0C480F
:104EAC004221FFF701FB0B490B4BC0E900130B4BE5
:104EBC0083600B23838100210120C2E90401AB6BC9
:104ECC0000221C615A6138BD40E603204D510B0095
:104EDC0064510B000E33CDAB34126DE6ECDE0500E5
:104EEC00034613F8012B002AFBD1181A013870471E
:104EFC002DE9F843DFF8B8800646D8F800001F46C5
:104F0C000D46914600F056F8254B1C6834B9254CDB
:104F1C001C60254B13B11B68C4F8883063681F2BC9
:104F2C0007DDD8F8000000F047F84FF0FF30BDE87F
:104F3C00F8834EB3D4F8880088B91C4B23B9D8F841
:104F4C00000000F038F8F0E74FF48470FFF79CFA9B
:104F5C000028F4D00023C0E94033C4F8880063680B
:104F6C0040F8239001229A4000EB8301D0F80031E5
:104F7C001343C0F80031022EC1F8807002BFD0F884
:104F8C0004311343C0F804316368D8F800005A1C8C
:104F9C000233626044F8235000F00EF80020C6E79C
:104FAC00E8E703205CE703200000000095440B00B9
:104FBC00A4E6032070477047704700001D400B00AB
:104FCC0059400B0081400B0085400B000000000095
:104FDC00000000000000000033450B0029450B00C9
:104FEC001F450B0015450B0009450B00FD440B003C
:104FFC00694B0B00714B0B00F1440B00E9440B00A7
:10500C00DF440B00D5440B00A14B0B00617070000A
:10501C0025592D256D2D25645425483A254D3A25C5
:10502C0053257A0061736374696D6500000000009C
:10503C0000000000B9470B00A9470B00AB470B0061
:10504C0000000000000000009F480B0007490B0007
:10505C00DD480B0099450B00CF480B00A1480B0015
:10506C00B1480B0001490B00C1480B0099480B00DB
:10507C00000000000000000099490B00054A0B00DD
:10508C00DD490B0099450B00AD490B00C9490B00DC
:10509C00BB490B00D7490B009B490B009F490B00E8
:1050AC0000000000000000003D4A0B00874A0B0086
:1050BC005F4A0B003F4A0B00674A0B006F4A0B001C
:1050CC00774A0B007F4A0B00000000000000000034
:1050DC000B4B0B00014B0B00F74A0B00B94A0B00B2
:1050EC002B460B00EB4A0B00694B0B00714B0B0072
:1050FC00DF4A0B00D74A0B00CD4A0B00C34A0B000A
:10510C00A14B0B000000000000000000294B0B001D
:10511C00334B0B003D4B0B00474B0B00514B0B0023
:10512C005D4B0B00694B0B00714B0B00794B0B006B
:10513C00854B0B008D4B0B00974B0B00A14B0B00C1
:10514C00005245454E54206D616C6C6F6320737535
:10515C0063636565646564002F6D6E742F776F7281
:10516C006B73706163652F776F726B7370616365BE
:10517C002F4743432D31302D706970656C696E6516
:10518C002F6A656E6B696E732D4743432D31302D3D
:10519C00706970656C696E652D34385F32303230F1
:1051AC00313132345F313630363138303634312F9C
:1051BC007372632F6E65776C69622F6E65776C699D
:1051CC00622F6C6962632F7374646C69622F7261F5
:1051DC006E642E630000000035410B003D450B0052
:1051EC0065450B0089450B0039460B0049460B0001
:1051FC0065460B00154B0B00794C0B0000000000B2
:04520C00000000009E
:04521000000000009A
:105214000700000030500B0044E6032000000000AB
:10522400000000000000000000000000000000007A
:10523400000000000000000000000000000000006A
:10524400000000000000000000000000000000005A
:10525400000000000000000000000000000000004A
:10526400000000000000000000000000000000003A
:10527400000000000000000000000000ECE7032034
:10528400FFFFFFFF00000102030405060708090AE7
:105294000B0C0D0E0F101112131415161718191AE2
:0852A4001B1C1D1E1F20280029
:0452AC0078563412EA
:04000003B000401CED
:00000001FF
